:020000040800F2
:1000000000000220BD1F0008052000080520000890
:100010000520000805200008052000080000000059
:1000200000000000000000000000000005200008A3
:100030000520000800000000052000080520000839
:1000400000000000000000000000000000000000B0
:1000500000000000000000000000000000000000A0
:100060000000000000000000000000000000000090
:100070000000000000000000000000000000000080
:100080000000000000000000000000000000000070
:100090000000000000000000000000000000000060
:1000A0000000000000000000000000000000000050
:1000B0000000000000000000000000000000000040
:1000C0000000000000000000000000000000000030
:1000D0000000000000000000000000000000000020
:1000E0000000000000000000000000000000000010
:1000F0000000000000000000000000000000000000
:1001000000000000000000000000000000000000EF
:1001100000000000000000000000000000000000DF
:1001200000000000000000000000000000000000CF
:1001300000000000000000000000000000000000BF
:1001400000000000000000000000000000000000AF
:10015000000000000000000000000000000000009F
:10016000000000000000000000000000000000008F
:10017000000000000000000000000000000000007F
:08018000000000000000000077
:100188000348044B834202D0034B03B1184770471E
:1001980040040020400400200000000005480649F3
:1001A8000B1AD90F01EBA301491002D0034B03B17D
:1001B8001847704740040020400400200000000059
:1001C80010B5064C237843B9FFF7DAFF044B13B197
:1001D8000448AFF300800123237010BD40040020C1
:1001E800000000001C20000808B5044B1BB104499E
:1001F8000448AFF30080BDE80840CFE700000000E6
:10020800440400201C200008002301461A46184612
:1002180000F03EB838B50A4C0A4D641BA4100AD049
:1002280004F18043013B05EB8305013C55F8043993
:100238009847002CF9D1BDE8384001F0F1BE00BF65
:10024800442000084020000870B50D4E0D4D761B67
:10025800B61006D00024013455F8043B9847A6424E
:10026800F9D1094E094D761B01F0D4FEB61006D01F
:100278000024013455F8043B9847A642F9D170BDD3
:1002880038200008382000084020000838200008DE
:10029800F0B4184C2568D5F8484114B365681F2D8B
:1002A80024DC38B9AB1C0135656044F82310002004
:1002B800F0BC704704EB85060127C6F8882007FACA
:1002C80005F2D4F88871022847EA0207C4F8887151
:1002D800C6F80831E6D1D4F88C311A43C4F88C2119
:1002E800E0E705F5A674C5F84841D7E74FF0FF30B9
:1002F800DEE700BF3420000880B487B000AFF860A4
:10030800B9607A607B6800221A6000237B6115E07F
:100318007B681A68B9687B690B441946FB680B440B
:100328001B7819467B69C3F10303DB0001FA03F369
:100338001A447B681A607B6901337B617B69032BF4
:10034800E6DD00BF00BF1C37BD4680BC704780B4E7
:1003580087B000AFF860B9607A6000237B6111E074
:100368007B69C3F10303DB007A6822FA03F17A6937
:10037800BB6813441A46FB681344CAB21A707B69F7
:1003880001337B617B69032BEADD00BF00BF1C37AB
:10039800BD4680BC704780B586B000AF78600B461C
:1003A800FB7007F110031A4600217868FFF7A4FFD5
:1003B80007F10C031A4604217868FFF79DFF07F13F
:1003C80008031A4608217868FFF796FF00F09EFC9C
:1003D80000BF00BF00BF00BF3A69FB685A40BB6856
:1003E8001A403B6953407B6100BF00BF00BF00BF9C
:1003F80000F098FC7A6900217868FFF7A8FF7A680E
:100408000421722000F07EFB002318461837BD46F1
:1004180080BD80B586B000AF78600B46FB7007F1F1
:1004280010031A4600217868FFF766FF07F10C03EE
:100438001A4604217868FFF75FFF07F108031A4698
:1004480008217868FFF758FF00F060FC00BF00BF84
:1004580000BF00BF3B695A00FB68D21AF9683B69C4
:10046800C91ABB6801FA03F313447B6100BF00BFDC
:1004780000BF00BF00F056FC7A6900217868FFF7DA
:1004880066FF7A680421722000F03CFB00231846BE
:100498001837BD4680BD90B589B000AF78600B466F
:1004A800FB7007F114031A4600217868FFF724FF50
:1004B80007F110031A4604217868FFF71DFF07F1BA
:1004C8000C031A4608217868FFF716FF07F108039E
:1004D8001A460C217868FFF70FFFBB68DB43FB6106
:1004E80000F014FC00BF00BF00BF00BF7A693B6981
:1004F8005A40BB681A407B695A4079693B69594040
:10050800BB685800FB69C01ABB68FC69E41AFB6841
:1005180004FA03F303440B405340BB6100BF00BF20
:1005280000BF00BF00F0FEFBBA6900217868FFF742
:100538000EFF7A680421722000F0E4FA00231846BE
:100548002437BD4690BD80B588B000AF78600B46B3
:10055800FB7007F118031A4600217868FFF7CCFEF4
:1005680007F114031A4604217868FFF7C5FE07F15E
:1005780010031A4608217868FFF7BEFE07F10C033E
:100588001A460C217868FFF7B7FE00F0BFFB00BFE2
:1005980000BF00BF00BF3B69C3F10102FB685340C5
:1005A800BA6902FB03F23969FB684B40796901FBC0
:1005B80003F35A40B9697B694B40F96801FB03F3BF
:1005C8005340FB6100BF00BF00BF00BF00F0AAFBA3
:1005D800FA6900217868FFF7BAFE7A680421722068
:1005E80000F090FA002318462037BD4680BD000071
:1005F80080B500AF00F0BCFA00F00AFB00F05EFB2B
:1006080000F03EF90B4A0C21612000F053F90A4A28
:100618000C21622000F04EF9084A1021632000F0F6
:1006280049F9074A1021642000F044F900F098F9CC
:10063800FCE700BF9F0300081B0400089F04000894
:100648004F05000880B483B000AF78600B46FB709C
:10065800012318460C37BD4680BC704780B584B06E
:1006680000AF78600B46FB70074B1B68DBB2FB736F
:1006780007F10F031A460121722000F043FA002304
:1006880018461037BD4680BD5C04002080B590B088
:1006980000AF78600B46FB70002387F83F303AE0E4
:1006A80097F83F3097F83F2027491B010B441978EA
:1006B80013465B00134407F140021344343B0A46D7
:1006C8001A7097F83F30204A1B01134404331B6803
:1006D80097F83F20D9B213465B00134407F1400254
:1006E8001344333B0A461A7097F83F3097F83F2077
:1006F80015491B010B440C33197813465B0013444E
:1007080007F140021344323B0A461A7097F83F300B
:10071800013387F83F3097F83F200C4B1B68DBB25A
:100728009A42BDDB094B1B68DBB21A4652001344E0
:10073800DBB207F10C021946722000F0E3F900233E
:1007480018464037BD4680BD600400205C04002088
:1007580080B487B000AFF860B9607A6000237B612D
:1007680083E07B695B001A46BB6813441B78FB7403
:100778007B695B000133BA6813441B78BB74BB7C8C
:100788002F2B0AD9BB7C392B07D87B697A6813448D
:10079800BA7C303AD2B21A701DE0BB7C402B0AD921
:1007A800BB7C462B07D87B697A681344BA7C373AF6
:1007B800D2B21A700FE0BB7C602B0AD9BB7C662BC7
:1007C80007D87B697A681344BA7C573AD2B21A7050
:1007D80001E001234FE0FB7C2F2B13D9FB7C392B45
:1007E80010D87B697A6813441B785AB2FB7C303B7B
:1007F8001B015BB2134359B27B697A681344CAB2CE
:100808001A702FE0FB7C402B13D9FB7C462B10D8A9
:100818007B697A6813441B785AB2FB7C373B1B010F
:100828005BB2134359B27B697A681344CAB21A702F
:1008380018E0FB7C602B13D9FB7C662B10D87B69F6
:100848007A6813441B785AB2FB7C573B1B015BB296
:10085800134359B27B697A681344CAB21A7001E02B
:10086800012308E07B6901337B617A69FB689A425E
:10087800FFF677AF002318461C37BD4680BC70478B
:1008880080B500AF084A0121762000F013F8074A26
:100898000121772000F00EF8054A0121792000F0A7
:1008A80009F800BF80BD00BF4D0600089506000886
:1008B8006506000880B584B000AF0346B9607A6069
:1008C800FB73F87B00237A68B96800F005F80346E3
:1008D80018461037BD4680BD80B485B000AFB960FA
:1008E8007A601A460346FB731346BB731A4B1B68A0
:1008F8000F2B01DD012329E0BB68FF2B01D9012360
:1009080024E0154B1B68154A1B011344FA7B1A7027
:10091800114B1B68114A1B0113440433BA681A604F
:100928000D4B1B680D4A1B01134408337A681A6083
:10093800094B1B68094A1B0113440C33BA7B1A7014
:10094800054B1B680133044A13600023184614370B
:10095800BD4680BC704700BF5C04002060040020D6
:1009680080B5ADF5467D00AF00F0E8F9034687F89D
:100978000F330023C7F814330EE0604AD7F8143356
:100988001B0113441B7897F80F239A420BD0D7F812
:1009980014330133C7F81433594B1B68D7F81423A1
:1009A8009A42EADB00E000BF554B1B68D7F81423D6
:1009B8009A4200F09680514AD7F814331B01134429
:1009C8000C331B7803F00103002B21D0FB1D002200
:1009D8001A7000F0B3F903461A463B1D1A7000F06E
:1009E800ADF903461A463B1D5A70FA1D3B1D1946C0
:1009F8000120FFF7ADFE0346002B74D1FB1D1B78C9
:100A080019463E4AD7F814331B01134404331960BE
:100A18000023C7F8103319E000F090F9034687F86F
:100A28000F3397F80F330A2B5FD097F80F330D2B3E
:100A38005BD007F58672D7F81033134497F80F2365
:100A48001A70D7F810330133C7F810332B4AD7F888
:100A580014331B01134404331B685A00D7F81033AE
:100A68009A42D9D800F06AF9034687F80F3397F805
:100A78000F330A2B03D097F80F330D2B37D11F4AAA
:100A8800D7F814331B01134404331B68184607F1C5
:100A98000C0207F586731946FFF75AFE0346002B2A
:100AA80027D1164AD7F814331B01134408331B689F
:100AB8001249D7F8142312010A4404321268D1B239
:100AC80007F10C021046984703461A4607F1080337
:100AD8001A7007F108031A4601217A2000F012F86B
:100AE80008E000BF06E000BF04E000BF02E000BF6E
:100AF80000E000BF07F54677BD4680BD60040020D2
:100B08005C04002080B584B000AF03463A60FB71F6
:100B18000B46BB71FB79184600F026F90023FB60F1
:100B280019E0FB683A6813441B781B09DBB21A46C4
:100B38000E4B9B5C184600F017F9FB683A681344A3
:100B48001B7803F00F03094AD35C184600F00CF930
:100B5800FB680133FB60BB79FA689A42E1DB0A2043
:100B680000F002F900BF1037BD4680BD000000202C
:100B780080B592B000AF0323BB614FF4A023FB61A3
:100B880001237B6202233B634FF480037B630C23C6
:100B9800BB63C423FB6304233B6407237B6407F123
:100BA8001803184600F004F90346002B00D0FEE7AE
:100BB8000F237B600123BB600023FB6000233B61A4
:100BC80000237B613B1D0021184600F055FB0023E4
:100BD8003B600C4B5B6B0B4A43F040035363094B80
:100BE8005B6B03F040033B603B68074B074A1A60A6
:100BF800054B00225A71044801F0A0F900BF48379C
:100C0800BD4680BD0038024064050020000806503B
:100C180080B588B000AF4FF4C063FB6002233B612E
:100C280001237B610223BB610723FB610023BB60B7
:100C38001E4B1B6B1D4A43F0010313631B4B1B6BBD
:100C480003F00103BB60BB6807F10C0319461848A1
:100C580000F01AFC174B184A1A60164B4FF416424C
:100C68005A60144B00229A60124B0022DA60114B32
:100C780000221A610F4B00229A610E4B0C225A6116
:100C880000237B60094B5B6C084A43F010035364F4
:100C9800064B5B6C03F010037B607B68054800F033
:100CA800C1FF00BF2037BD4680BD00BF00380240ED
:100CB80000000240800500200010014080B586B089
:100CC80000AF00233B600F4B1B6B0E4A43F0010340
:100CD80013630C4B1B6B03F001033B603B684FF441
:100CE80080537B600123BB600023FB6002233B61D0
:100CF8003B1D1946044800F0C7FB00BF1837BD4626
:100D080080BD00BF003802400000024080B500AF3F
:100D180001224FF48051024800F050FD00BF80BD11
:100D28000000024080B500AF00224FF48051024815
:100D380000F044FD00BF80BD0000024080B582B0D5
:100D480000AF00BFF91D41F288330122054801F0C8
:100D58005AF80346002BF5D1FB7918460837BD46EB
:100D680080BD00BF8005002080B584B000AF034679
:100D7800FB71FB79FB7307F10F0141F28833012204
:100D8800034800F0B6FF00BF1037BD4680BD00BF66
:100D98008005002080B400AF044B1B685A1C03492F
:100DA8000A601846BD4680BC704700BF6005002039
:100DB80080B58EB000AF786000237B637B681B68CA
:100DC80003F00103002B77D0A54B9B6803F00C03BD
:100DD800042B0CD0A24B9B6803F00C03082B12D1F8
:100DE8009F4B5B6803F48003B3F5800F0BD19C4BDA
:100DF8001B6803F40033002B5DD07B685B68002B15
:100E080059D101232CE27B685B68B3F5803F06D19A
:100E1800934B1B68924A43F4803313601DE07B6850
:100E28005B68B3F5A02F0CD18D4B1B688C4A43F43B
:100E3800802313608A4B1B68894A43F4803313600C
:100E48000BE0874B1B68864A23F480331360844B7E
:100E58001B68834A23F4802313607B685B68002B3C
:100E680014D0FFF797FF786309E0FFF793FF024676
:100E78007B6BD31A7B4A934201D90323F0E1784B69
:100E88001B6803F40033002BEFD015E0FFF782FF57
:100E9800786309E0FFF77EFF02467B6BD31A714A3D
:100EA800934201D90323DBE16D4B1B6803F4003344
:100EB800002BEFD100E000BF7B681B6803F0020342
:100EC800002B77D0664B9B6803F00C03002B0BD0EC
:100ED800634B9B6803F00C03082B26D1604B5B68BF
:100EE80003F48003002B20D15D4B1B6803F0020341
:100EF800002B05D07B68DB68012B01D00123AFE113
:100F0800574B1B6823F0F8027B681969F8233B6389
:100F18003B6B93FAA3F3FB62FB6AB3FA83F301FA20
:100F280003F34F4913430B6044E07B68DB68002BF5
:100F38002AD04D4B01221A60FFF72CFF786308E096
:100F4800FFF728FF02467B6BD31A022B01D9032334
:100F580086E1434B1B6803F00203002BF0D0404BA3
:100F68001B6823F0F8027B681969F823BB62BB6A27
:100F780093FAA3F37B627B6AB3FA83F301FA03F370
:100F8800374913430B6015E0374B00221A60FFF70F
:100F980001FF786308E0FFF7FDFE02467B6BD31A7A
:100FA800022B01D903235BE12D4B1B6803F00203DD
:100FB800002BF0D17B681B6803F00803002B30D0AE
:100FC8007B685B69002B16D0284B01221A60FFF75B
:100FD800E1FE786308E0FFF7DDFE02467B6BD31A7B
:100FE800022B01D903233BE11D4B5B6F03F0020386
:100FF800002BF0D015E01D4B00221A60FFF7CAFE47
:10100800786308E0FFF7C6FE02467B6BD31A022B13
:1010180001D9032324E1124B5B6F03F00203002B79
:10102800F0D17B681B6803F00403002B00F0888074
:101038000023BB600A4B1B6C094A43F080531364BE
:10104800074B1B6C03F08053BB60BB68084B1B68E5
:10105800074A43F480731360FFF79CFE786312E03D
:101068000038024000E1F50500004742800E474283
:1010780000700040FFF78EFE02467B6BD31A022BEE
:1010880001D90323ECE0784B1B6803F48073002B31
:10109800F0D07B689B68012B06D1744B1B6F734A99
:1010A80043F0010313671CE07B689B68052B0CD198
:1010B8006E4B1B6F6D4A43F0040313676B4B1B6F3A
:1010C8006A4A43F0010313670BE0684B1B6F674ADA
:1010D80023F001031367654B1B6F644A23F0040375
:1010E80013677B689B68002B15D0FFF753FE786366
:1010F8000AE0FFF74FFE02467B6BD31A41F28832B3
:10110800934201D90323ABE0584B1B6F03F0020352
:10111800002BEED014E0FFF73DFE78630AE0FFF7FE
:1011280039FE02467B6BD31A41F28832934201D9C9
:10113800032395E04D4B1B6F03F00203002BEED108
:101148007B689B69002B00F08A80484B9B6803F002
:101158000C03082B00F081807B689B69022B64D10B
:10116800434B00221A60FFF715FE786309E0FFF78A
:1011780011FE02467B6BD31A3E4A934201D90323E0
:101188006EE03A4B1B6803F00073002BEFD17B68CD
:10119800DA697B681B6A1A437B68596A47F6C07329
:1011A8003B613B6993FAA3F3FB60FB68B3FA83F3F3
:1011B80001FA03F31A437B689B6A5B08591E4FF4D4
:1011C8004033BB61BB6993FAA3F37B617B69B3FAD4
:1011D80083F301FA03F31A437B68D96A4FF070630B
:1011E8003B623B6A93FAA3F3FB61FB69B3FA83F3AF
:1011F80001FA03F31D4913434B601D4B01221A608A
:10120800FFF7C8FD786309E0FFF7C4FD02467B6B72
:10121800D31A184A934201D9032321E0134B1B68C0
:1012280003F00073002BEFD019E0114B00221A6075
:10123800FFF7B0FD786309E0FFF7ACFD02467B6B72
:10124800D31A0C4A934201D9032309E0074B1B68C0
:1012580003F00073002BEFD101E0012300E000232D
:1012680018463837BD4680BD00700040003802403F
:101278006000474280841E0080B584B000AF78606B
:1012880039600023FB60744B1B6803F00F033A6856
:101298009A420CD9704B3A68D2B21A706E4B1B68DE
:1012A80003F00F033A689A4201D00123CFE07B682C
:1012B8001B6803F00203002B08D0684B9B6823F0DF
:1012C800F0027B689B68654913438B607B681B68E9
:1012D80003F00103002B00F086807B685B68012B1C
:1012E80007D15E4B1B6803F40033002B19D101238F
:1012F800ADE07B685B68022B03D07B685B68032BDF
:1013080007D1564B1B6803F00073002B09D101234A
:101318009DE0524B1B6803F00203002B01D101230F
:1013280095E04E4B9B6823F003027B685B684B4952
:1013380013438B60FFF72EFDF8607B685B68012B19
:1013480012D10AE0FFF726FD0246FB68D31A41F2E4
:101358008832934201D9032379E0404B9B6803F01C
:101368000C03042BEED13EE07B685B68022B12D1A4
:101378000AE0FFF70FFD0246FB68D31A41F28832F4
:10138800934201D9032362E0344B9B6803F00C03BA
:10139800082BEED127E07B685B68032B1DD10AE0A0
:1013A800FFF7F8FC0246FB68D31A41F288329342F1
:1013B80001D903234BE0294B9B6803F00C030C2B4A
:1013C800EED110E0FFF7E6FC0246FB68D31A41F2C3
:1013D8008832934201D9032339E0204B9B6803F0FC
:1013E8000C03002BEED11C4B1B6803F00F033A686B
:1013F8009A420CD2184B3A68D2B21A70164B1B6834
:1014080003F00F033A689A4201D001231FE07B687A
:101418001B6803F00403002B08D0104B9B6823F4CF
:10142800E0527B68DB680D4913438B607B681B685F
:1014380003F00803002B09D0084B9B6823F4604293
:101448007B681B69DB00054913438B600023184642
:101458001037BD4680BD00BF003C02400038024046
:1014680080B400AF024B1846BD4680BC704700BF31
:101478001075700080B400AF024B1846BD4680BCA2
:10148800704700BF1075700080B489B000AF7860F5
:10149800396000237B6100233B610023BB6100238B
:1014A800FB616BE10122FB6902FA03F37B613B6894
:1014B8001B687A6913403B613A697B699A4240F03C
:1014C8005A813B685B68022B03D03B685B68122B30
:1014D80023D1FB69DA087B68083253F82230BB61F4
:1014E800FB6903F007039B000F2202FA03F3DB43B7
:1014F800BA691340BB613B681A69FB6903F00703CB
:101508009B0002FA03F3BA691343BB61FB69DA086B
:101518007B680832B96943F822107B681B68BB6195
:10152800FB695B00032202FA03F3DB43BA69134049
:10153800BB613B685B6803F00302FB695B0002FA6E
:1015480003F3BA691343BB617B68BA691A603B68E5
:101558005B68012B0BD03B685B68022B07D03B68AC
:101568005B68112B03D03B685B68122B30D17B681A
:101578009B68BB61FB695B00032202FA03F3DB4350
:10158800BA691340BB613B68DA68FB695B0002FA21
:1015980003F3BA691343BB617B68BA699A607B68D5
:1015A8005B68BB610122FB6902FA03F3DB43BA699A
:1015B8001340BB613B685B681B0903F00102FB69D0
:1015C80002FA03F3BA691343BB617B68BA695A60CC
:1015D8007B68DB68BB61FB695B00032202FA03F3EB
:1015E800DB43BA691340BB613B689A68FB695B00DF
:1015F80002FA03F3BA691343BB617B68BA69DA601C
:101608003B685B6803F08053002B00F0B480002334
:10161800FB605F4B5B6C5E4A43F4804353645C4BF6
:101628005B6C03F48043FB60FB685A4AFB699B08C8
:10163800023352F82330BB61FB6903F003039B00BC
:101648000F2202FA03F3DB43BA691340BB617B68DC
:10165800514A93422BD07B68504A934225D07B68ED
:101668004F4A93421FD07B684E4A934219D07B68F9
:101678004D4A934213D07B684C4A93420DD07B6805
:101688004B4A934207D07B684A4A934201D10723C9
:101698000EE008230CE006230AE0052308E00423F3
:1016A80006E0032304E0022302E0012300E0002314
:1016B800FA6902F0030292009340BA691343BB61CE
:1016C8003449FB699B080233BA6941F823203A4B35
:1016D8001B68BB613B69DB43BA691340BB613B686C
:1016E8005B6803F48033002B03D0BA693B6913436A
:1016F800BB61314ABB6913602F4B5B68BB613B69B7
:10170800DB43BA691340BB613B685B6803F4003391
:10171800002B03D0BA693B691343BB61264ABB69F6
:101728005360254B9B68BB613B69DB43BA69134037
:10173800BB613B685B6803F48013002B03D0BA6974
:101748003B691343BB611C4ABB6993601A4BDB6856
:10175800BB613B69DB43BA691340BB613B685B68AB
:1017680003F40013002B03D0BA693B691343BB6130
:10177800114ABB69D360FB690133FB61FB690F2B1D
:101788007FF690AE00BF00BF2437BD4680BC7047CF
:1017980000380240003801400000024000040240C6
:1017A80000080240000C02400010024000140240F1
:1017B80000180240001C0240003C014080B483B085
:1017C80000AF78600B467B8013467B707B78002BDC
:1017D80003D07A887B689A6103E07B881A047B6867
:1017E8009A6100BF0C37BD4680BC7047B0B584B065
:1017F80000AF78600023FB607B681B681B69FB6097
:10180800FB6823F44053FB607B68DB68FA6813438A
:10181800FB607B681B68FA681A617B681B68DB6879
:10182800FB60FB6823F4164323F00C03FB607B6822
:101838009A687B681B691A437B685B691A437B68F3
:10184800DB691343FA681343FB607B681B68FA681B
:10185800DA607B681B685B69FB60FB6823F4407394
:10186800FB607B689B69FA681343FB607B681B68B5
:10187800FA685A617B68DB69B3F5004F40F0E48091
:101888007B681B68AB4A934204D07B681B68AA4AF2
:1018980093426CD1FFF7EEFD024613469B001344BA
:1018A8009A001A447B685B685B00B2FBF3F3A34AB7
:1018B800A2FB03235B091C01FFF7DCFD024613466C
:1018C8009B0013449A001A447B685B685B00B2FB78
:1018D800F3F5FFF7CFFD024613469B0013449A0029
:1018E8001A447B685B685B00B2FBF3F3934AA2FB84
:1018F80003235B09642202FB03F3EB1ADB00323398
:101908008E4AA2FB03235B095B0003F4F8731C44B3
:10191800FFF7B0FD024613469B0013449A001A4491
:101928007B685B685B00B2FBF3F5FFF7A3FD02463B
:1019380013469B0013449A001A447B685B685B005B
:10194800B2FBF3F37D4AA2FB03235B09642202FB8B
:1019580003F3EB1ADB003233784AA2FB03235B095B
:1019680003F007027B681B6822449A6054E1FFF782
:1019780077FD024613469B0013449A001A447B687D
:101988005B685B00B2FBF3F36C4AA2FB03235B09C1
:101998001C01FFF765FD024613469B0013449A009D
:1019A8001A447B685B685B00B2FBF3F5FFF758FDF0
:1019B800024613469B0013449A001A447B685B68EE
:1019C8005B00B2FBF3F35D4AA2FB03235B096422CD
:1019D80002FB03F3EB1ADB003233584AA2FB032362
:1019E8005B095B0003F4F8731C44FFF739FD0246FA
:1019F80013469B0013449A001A447B685B685B009B
:101A0800B2FBF3F5FFF72CFD024613469B00134487
:101A18009A001A447B685B685B00B2FBF3F3474AA1
:101A2800A2FB03235B09642202FB03F3EB1ADB002E
:101A38003233424AA2FB03235B0903F007027B68A7
:101A48001B6822449A60E7E07B681B68394A934226
:101A580004D07B681B68384A934271D1FFF70AFDAE
:101A6800024613469B0013449A001A447B685B683D
:101A78009B00B2FBF3F3314AA2FB03235B091C0171
:101A8800FFF7F8FC024613469B0013449A001A44D9
:101A98007B685B689B00B2FBF3F5FFF7EBFC024643
:101AA80013469B0013449A001A447B685B689B00AA
:101AB800B2FBF3F3214AA2FB03235B09642202FB76
:101AC80003F3EB1A1B0132331C4AA2FB03235B0905
:101AD80003F0F0031C44FFF7CDFC024613469B00BD
:101AE80013449A001A447B685B689B00B2FBF3F5C9
:101AF800FFF7C0FC024613469B0013449A001A44A1
:101B08007B685B689B00B2FBF3F30C4AA2FB0323E0
:101B18005B09642202FB03F3EB1A1B013233074A09
:101B2800A2FB03235B0903F00F027B681B682244B6
:101B38009A6071E000100140001401401F85EB51CC
:101B4800FFF78EFC024613469B0013449A001A4482
:101B58007B685B689B00B2FBF3F3314AA2FB03236B
:101B68005B091C01FFF77CFC024613469B001344EB
:101B78009A001A447B685B689B00B2FBF3F5FFF799
:101B88006FFC024613469B0013449A001A447B6874
:101B98005B689B00B2FBF3F3214AA2FB03235B09BA
:101BA800642202FB03F3EB1A1B0132331C4AA2FB2B
:101BB80003235B0903F0F0031C44FFF751FC0246C2
:101BC80013469B0013449A001A447B685B689B0089
:101BD800B2FBF3F5FFF744FC024613469B0013449F
:101BE8009A001A447B685B689B00B2FBF3F30C4ACB
:101BF800A2FB03235B09642202FB03F3EB1A1B011C
:101C08003233074AA2FB03235B0903F00F027B6808
:101C18001B6822449A60FFE700BF1037BD46B0BD7D
:101C28001F85EB5180B582B000AF78607B68002BD0
:101C380001D101233CE07B6893F83930DBB2002BFB
:101C480003D17B68002283F838207B68242283F83C
:101C580039207B681B68DA687B681B6822F40052AD
:101C6800DA607868FFF7C2FD7B681B681A697B68D1
:101C78001B6822F490421A617B681B685A697B686A
:101C88001B6822F02A025A617B681B68DA687B6845
:101C98001B6842F40052DA607B680022DA637B68D2
:101CA800202283F839207B68202283F83A200023F9
:101CB80018460837BD4680BD80B485B000AFF860CF
:101CC800B9601346FB7100BFFB681B681A68BB68E4
:101CD8001340BA689A420CBF01230023DBB21A46AC
:101CE800FB799A42F0D0002318461437BD4680BCD1
:101CF800704780B586B000AFF860B9603B601346A6
:101D0800FB80FB6893F83930DBB2202B76D1BB68B7
:101D1800002B02D0FB88002B01D101236FE0FB6868
:101D280093F83830012B01D1022368E0FB680122C7
:101D380083F83820FB680022DA63FB68212283F8E5
:101D48003920FB68FA889A84FB68FA88DA843CE0D0
:101D5800FB68DB8C9BB2013B9AB2FB68DA84FB68B8
:101D68009B68B3F5805F1FD100228021F868FFF7D8
:101D7800A3FF0346002B01D0032340E0BB687B612F
:101D88007B691B881A46FB681B68C2F308025A6005
:101D9800FB681B69002B03D1BB680233BB6014E0EE
:101DA800BB680133BB6010E000228021F868FFF7B0
:101DB80083FF0346002B01D0032320E0BB685A1C95
:101DC800BA601A78FB681B685A60FB68DB8C9BB2A8
:101DD800002BBDD100224021F868FFF76DFF0346B4
:101DE800002B01D003230AE0FB68202283F8392066
:101DF800FB68002283F83820002300E002231846FD
:101E08001837BD4680BD80B586B000AFF860B960B0
:101E18003B601346FB80FB6893F83A30DBB2202B1B
:101E280040F08780BB68002B02D0FB88002B01D1D3
:101E380001237FE0FB6893F83830012B01D102239E
:101E480078E0FB68012283F83820FB680022DA6317
:101E5800FB68222283F83A20FB68FA889A85FB6897
:101E6800FA88DA8556E0FB68DB8D9BB2013B9AB2B3
:101E7800FB68DA85FB689B68B3F5805F28D1002290
:101E88002021F868FFF718FF0346002B01D0032331
:101E980050E0BB687B61FB681B69002B0CD1FB68B9
:101EA8001B685B689BB2C3F308039AB27B691A800C
:101EB800BB680233BB602DE0FB681B685B689BB2A4
:101EC800DBB29AB27B691A80BB680133BB6021E040
:101ED80000222021F868FFF7EFFE0346002B01D00F
:101EE800032327E0FB681B69002B08D1FB681B68EC
:101EF8005968BB685A1CBA60CAB21A700AE0FB6813
:101F08001B685B68DAB2BB68591CB96002F07F02D3
:101F1800D2B21A70FB68DB8D9BB2002BA3D1FB6891
:101F2800202283F83A20FB68002283F83820002317
:101F380000E0022318461837BD4680BD80B582B040
:101F480000AF78607B68002B01D1012325E07B6816
:101F58001B79012B01D102231FE07B6801221A7132
:101F68007B685B79DBB2002B05D17B6800221A7194
:101F7800786800F016F87B6802225A717B681B6843
:101F88001A687B681B6842F004021A607B680122A9
:101F98005A717B6800221A71002318460837BD461B
:101FA80080BD80B483B000AF786000BF0C37BD46F9
:101FB80080BC7047002103E00B4B5B584350043151
:101FC8000A480B4B42189A42F6D30A4A02E0002309
:101FD80013600432084B9A42F9D3AFF30080FEF73E
:101FE80033F9FEF705FBFEE7442000080000002057
:101FF8004004002040040020C0050020FEE7000047
:10200800024B13B10248FEF7FFB87047000000000A
:102018001D020008F8B500BFF8BC08BC9E46704712
:0C202800F8B500BFF8BC08BC9E4670472D
:042034001800002070
:0820380009200008F101000875
:04204000C9010008CA
:1020440030313233343536373839414243444546EA
:10205400180000200000000000000000040300201D
:102064006C030020D40300200000000000000000E6
:10207400000000000000000000000000000000005C
:10208400000000000000000000000000000000004C
:10209400000000000000000000000000000000003C
:1020A400000000000000000000000000000000002C
:1020B400000000000000000000000000000000001C
:1020C400000000000000000000000000000000000C
:1020D40000000000000000000000000000000000FC
:1020E40000000000000000000000000000000000EC
:1020F40000000000000000000000000000000000DC
:1021040001000000000000000E33CDAB34126DE678
:10211400ECDE05000B0000000000000000000000E1
:1021240000000000000000000000000000000000AB
:10213400000000000000000000000000000000009B
:10214400000000000000000000000000000000008B
:10215400000000000000000000000000000000007B
:0400000508001FBD13
:00000001FF
