:020000040800F2
:100000000000022065130008AD130008AD130008BE
:10001000AD130008AD130008AD1300080000000088
:10002000000000000000000000000000AD13000808
:10003000AD13000800000000AD130008AD13000868
:1000400000000000000000000000000000000000B0
:1000500000000000000000000000000000000000A0
:100060000000000000000000000000000000000090
:100070000000000000000000000000000000000080
:100080000000000000000000000000000000000070
:100090000000000000000000000000000000000060
:1000A0000000000000000000000000000000000050
:1000B0000000000000000000000000000000000040
:1000C0000000000000000000000000000000000030
:1000D0000000000000000000000000000000000020
:1000E0000000000000000000000000000000000010
:1000F0000000000000000000000000000000000000
:1001000000000000000000000000000000000000EF
:1001100000000000000000000000000000000000DF
:1001200000000000000000000000000000000000CF
:1001300000000000000000000000000000000000BF
:1001400000000000000000000000000000000000AF
:10015000000000000000000000000000000000009F
:10016000000000000000000000000000000000008F
:10017000000000000000000000000000000000007F
:08018000000000000000000077
:100188000348044B834202D0034B03B1184770471E
:100198003004002030040020000000000548064913
:1001A8000B1AD90F01EBA301491002D0034B03B17D
:1001B8001847704730040020300400200000000079
:1001C80010B5064C237843B9FFF7DAFF044B13B197
:1001D8000448AFF300800123237010BD30040020D1
:1001E80000000000C413000808B5044B1BB1044903
:1001F8000448AFF30080BDE80840CFE700000000E6
:1002080034040020C4130008002301461A46184687
:1002180000F03EB838B50A4C0A4D641BA4100AD049
:1002280004F18043013B05EB8305013C55F8043993
:100238009847002CF9D1BDE8384001F0C5B800BF97
:10024800FC130008F813000870B50D4E0D4D761B11
:10025800B61006D00024013455F8043B9847A6424E
:10026800F9D1094E094D761B01F0A8F8B61006D051
:100278000024013455F8043B9847A642F9D170BDD3
:10028800F0130008F0130008F8130008F013000832
:10029800F0B4184C2568D5F8484114B365681F2D8B
:1002A80024DC38B9AB1C0135656044F82310002004
:1002B800F0BC704704EB85060127C6F8882007FACA
:1002C80005F2D4F88871022847EA0207C4F8887151
:1002D800C6F80831E6D1D4F88C311A43C4F88C2119
:1002E800E0E705F5A674C5F84841D7E74FF0FF30B9
:1002F800DEE700BFEC13000830B4002313600144AC
:10030800182311F8014B04FA03F514682C441460FF
:10031800083B13F1080FF4D130BC7047130E435457
:100328000144130C4B70130A8B70CA70704730B5B8
:1003380085B0054603AA0021FFF7DEFF02AA0421C3
:100348002846FFF7D9FF01AA08212846FFF7D4FF5E
:1003580000F0A8FA00BF00BF00BF00BF039A029BCD
:1003680082EA0304019B1C40544000BF00BF00BF49
:1003780000BF00F0A1FA224600212846FFF7CEFF71
:100388002A460421722000F021F9002005B030BD72
:1003980030B585B0044603AA0021FFF7ADFF02AAD5
:1003A80004212046FFF7A8FF01AA08212046FFF7ED
:1003B800A3FF00F077FA00BF00BF00BF00BF039A99
:1003C800029B9D1A01998D40C3EB42031D4400BF57
:1003D80000BF00BF00BF00F06FFA2A460021204688
:1003E800FFF79CFF22460421722000F0EFF800205E
:1003F80005B030BD70B584B0054603AA0021FFF7EB
:100408007BFF02AA04212846FFF776FF01AA0821EC
:100418002846FFF771FF6A460C212846FFF76CFF54
:10042800009EF64300F03EFA00BF00BF00BF00BFC9
:100438000399029B4B40009AB41A01988440C6EB7A
:10044800420634441C4013404B405C4000BF00BF90
:1004580000BF00BF00F030FA224600212846FFF70F
:100468005DFF2A460421722000F0B0F8002004B095
:1004780070BD000008B500F077F900F0B5F900F09C
:10048800EFF900F08BF8094A0C21612000F080F8A0
:10049800074A0C21622000F07BF8064A10216320ED
:1004A80000F076F800F0ECF8FCE700BF370300082E
:1004B80099030008FD03000801207047002847DD64
:1004C800F0B4002301F1010C1DE0A6F14105EDB2E5
:1004D800052D02D8373ED65420E0A6F16105EDB2CD
:1004E800052D37D8573ED65418E0A4F14105EDB292
:1004F800052D1FD8A4F13705D45D44EA0514D45559
:100508000133984221D01F4611F813401CF813609C
:10051800A6F13005EDB2092DD7D8D554A4F1300590
:10052800EDB2092DE1D8A4F13005D45D44EA0514F3
:10053800D455E5E7A4F16105EDB2052D0CD8573C7B
:10054800D55D45EA0414D455DAE70020F0BC7047BD
:10055800002070470120F9E70120F7E770B40B4C41
:1005680024680F2C0DDCFF290DD8084E06EB041566
:100578002871A960EA602B7401343460002070BCD3
:1005880070470120FBE70120F9E700BF4C04002079
:1005980008B50023FFF7E2FF08BD000008B5084AC8
:1005A80001217620FFF7F4FF064A01217720FFF7A3
:1005B800EFFF054A01217920FFF7EAFF08BD00BFD8
:1005C800C1040008350600081106000870B50D467C
:1005D800164600F08FF985B134462E44094D23782C
:1005E8001B09E85C00F086F914F8013B03F00F03DF
:1005F800E85C00F07FF9B442F1D10A2000F07AF902
:1006080070BD00BFDC13000800B583B0064B1B6843
:100618008DF807300DF1070201217220FFF7D6FF90
:10062800002003B05DF804FB4C04002070B58CB0CA
:10063800124B196811F0FF0516D0002213460F4E11
:1006480003EB43000CAC204406EB03131C7900F8C1
:10065800304C9C6800F82F4C1B7C00F82E3C013273
:10066800D2B21346AA42EBDB01EB41016A46C9B29A
:100678007220FFF7ABFF00200CB070BD4C040020C7
:10068800F0B5ADF5457D00F021F9364B1A68002A22
:100698000BDD0024191D23015B5C834206D0013465
:1006A8009442F8D10DF5457DF0BD0024A242F9D061
:1006B8002C4B03EB04131B7C13F0010F37D1294B90
:1006C80003EB04139B685B0011D044AE0025254F53
:1006D80007EB041700F0FAF80A28E3D00D28E1D058
:1006E80006F8010B0135BB68B5EB430FF2D300F0F8
:1006F800EDF80A2801D00D28D4D11A4B03EB0413C6
:100708009D6804AA44A92846FFF7D8FE0028C9D145
:10071800144B03EB0414E368E9B204A898478DF876
:100728000C0003AA01217A20FFF750FFBAE7002343
:100738008DF8073000F0CAF88DF8080000F0C6F808
:100748008DF809000DF1070202A90120FFF7B6FE96
:100758000028A7D1034B03EB04139DF807209A60E8
:10076800ADE700BF4C04002010B592B003230693F8
:100778004FF4A02307930123099302230C934FF40A
:1007880080030D930C230E93C4230F93042310931B
:100798000723119306A800F0C7F800B1FEE70F235E
:1007A80001930123029300240394049405942146A1
:1007B80001A800F09BFA0094084B5A6B42F04002E3
:1007C8005A635B6B03F040030093009B0448054B9E
:1007D8000360447100F0A4FD12B010BD003802405F
:1007E800540500200008065030B589B04FF4C063A6
:1007F8000393022304930122059206930723079388
:1008080000250195124C236B13432363236B13407C
:100818000193019B03A90F4800F024FB0E480F4BDE
:1008280003604FF4164343608560C56005618561C8
:100838000C2343610295636C43F010036364636C9B
:1008480003F010030293029B00F0FAFB09B030BDDD
:1008580000380240000002407005002000100140EE
:1008680000B587B0002100910C4B1A6B42F00102D1
:100878001A631B6B03F001030093009B4FF4805332
:1008880001930123029303910223049301A90448CD
:1008980000F0E8FA07B05DF804FB00BF003802403A
:1008A8000000024008B501224FF48051014800F0D1
:1008B800C1FB08BD0000024008B500224FF480517A
:1008C800014800F0B7FB08BD0000024030B583B016
:1008D800074D41F28834234601220DF107012846CD
:1008E80000F0C4FC0028F6D19DF8070003B030BD25
:1008F8007005002000B583B08DF8070041F28833F9
:1009080001220DF10701034800F05EFC03B05DF819
:1009180004FB00BF70050020024B1868421C1A60D7
:10092800704700BF50050020F0B583B00446036847
:1009380013F0010F3CD0A94B9B6803F00C03042B68
:100948002DD0A64B9B6803F00C03082B22D06368BC
:10095800B3F5803F50D0B3F5A02F53D09F4B1A6802
:1009680022F480321A601A6822F480221A606368BE
:10097800002B51D0FFF7D0FF0546984E984F3368AB
:1009880013F4003F14D1FFF7C7FF401BB842F6D954
:100998000320A0E1914B5B6813F4800FD7D08F4BF5
:1009A8001B6813F4003F03D06368002B00F08E81AE
:1009B800236813F0020F5AD0884B9B6813F00C0F72
:1009C8003FD0864B9B6803F00C03082B34D0E368B8
:1009D800002B72D0834B01221A60FFF79DFF05465A
:1009E8007E4E336813F0020F59D1FFF795FF401B75
:1009F8000228F6D903206EE1784A136843F480335D
:100A08001360B4E7754B1A6842F480221A601A68BA
:100A180042F480321A60AAE7FFF77EFF05466F4E60
:100A28006F4F336813F4003FC2D0FFF775FF401BC8
:100A3800B842F6D903204EE1684B5B6813F4800F87
:100A4800C5D1664B1B6813F0020F03D0E368012B76
:100A580040F03E8161480168F82393FAA3F3B3FAA2
:100A680083F22369934021F0F8021343036023685B
:100A780013F0080F45D063698BB35B4B01221A60F2
:100A8800FFF74AFF0546554E736F13F0020F38D132
:100A9800FFF742FF401B0228F6D903201BE14F480D
:100AA8000168F82393FAA3F3B3FA83F22369934016
:100AB80021F0F80213430360D9E74A4B00221A6079
:100AC800FFF72AFF0546454E336813F0020FCED0D4
:100AD800FFF722FF401B0228F6D90320FBE0424B18
:100AE80000221A60FFF718FF05463C4E736F13F09B
:100AF800020F06D0FFF710FF401B0228F6D903208B
:100B0800E9E0236813F0040F21D1A369002B00F05A
:100B1800E180324A926802F00C02082A00F0DD8077
:100B2800022B00F08580314B00221A60FFF7F4FE9B
:100B380004462A4D2E4E2B6813F0007F00F0C48027
:100B4800FFF7EAFE001BB042F5D90320C3E00023FB
:100B58000193224B1A6C42F080521A641B6C03F00A
:100B680080530193019B234A136843F480731360F5
:100B7800FFF7D2FE05461F4E336813F4807F06D177
:100B8800FFF7CAFE401B0228F6D90320A3E0A3689A
:100B9800012B1DD0052B2FD0104B1A6F22F001020C
:100BA8001A671A6F22F004021A67A36873B3FFF773
:100BB800B3FE0546094E41F28837336F13F0020F32
:100BC800A3D1FFF7A9FE401BB842F6D9032082E063
:100BD800024A136F43F001031367E6E70038024047
:100BE80000E1F50500004742800E47426000474299
:100BF80080841E0000700040394B1A6F42F00402D6
:100C08001A671A6F42F001021A67CEE7FFF784FEEF
:100C18000546334E41F28837336F13F0020F3FF425
:100C280074AFFFF779FE401BB842F5D9032052E0B4
:100C38002C4B00221A60FFF76FFE0546284E2A4FFC
:100C4800336813F0007F06D0FFF766FE401BB842FA
:100C5800F6D903203FE047F6C07595FAA5F5B5FA31
:100C680085F54FF4403292FAA2F2B2FA82F04FF0D0
:100C7800706191FAA1F1B1FA81F1E369226A134333
:100C8800626A02FA05F52B43A26A5208013A8240C9
:100C98001343E26A02FA01F10B43114A5360114B04
:100CA80001221A60FFF738FE04460D4D0E4E2B68E0
:100CB80013F0007F06D1FFF72FFE001BB042F6D9D4
:100CC800032008E0002006E0002004E0012002E004
:100CD800012000E0002003B0F0BD0120FBE700BFC9
:100CE800003802406000474280841E002DE9F04130
:100CF80004460D46594B1B6803F00F038B4208D27C
:100D0800CBB2564A1370136803F00F038B4240F0BE
:100D18009B80236813F0020F06D0514A936823F092
:100D2800F003A1680B439360236813F0010F64D0AC
:100D38006268012A26D0931E012B2AD9484B1B68CA
:100D480013F0020F00F0838045498B6823F00303FA
:100D580013438B60FFF7E0FD06466368012B1FD045
:100D6800022B2CD0032B39D03D4F41F28838BB6879
:100D780013F00C0F41D0FFF7CFFD801B4045F6D98B
:100D8800032062E0364B1B6813F4003FDCD10120DE
:100D98005BE0334B1B6813F0007FD5D1012054E092
:100DA8002F4F41F28838BB6803F00C03042B24D082
:100DB800FFF7B2FD831B4345F5D9032045E0284FD3
:100DC80041F28838BB6803F00C03082B15D0FFF7F5
:100DD800A3FD801B4045F5D9032036E0204F41F2A2
:100DE8008838BB6803F00C030C2B06D0FFF794FD82
:100DF800801B4045F5D9032027E0184B1B6803F0FA
:100E08000F03AB4207D9EAB2144B1A701B6803F000
:100E18000F03AB421DD1236813F0040F06D0104A0C
:100E2800936823F4E053E1680B439360236813F05D
:100E3800080F10D00A4A9368216923F4604343EAF3
:100E4800C1039360002000E00120BDE8F08101208B
:100E5800FBE70120F9E70020F7E700BF003C02406C
:100E6800003802402DE9F04F83B000236B4FDFF8C4
:100E7800B8C16B4EDFF8B491DFF8B4A144E0DD08E7
:100E880000EB8505D5F820E003F007044FEA840B52
:100E98000F2404FA0BF42EEA040E0C6904FA0BF47E
:100EA80044EA0E042C623CE0002404FA0BF444EA01
:100EB8000E04946032686FEA08054C6814F4803FA9
:100EC8000CBF2A4048EA0202326072684C6814F487
:100ED800003F0CBF2A4048EA02027260B4684A68C0
:100EE80012F4801F0CBF2C4048EA0404B460F26876
:100EF8004C6814F4001F0CBF2A4048EA0202F26052
:100F08000133102B00F0878001229A400C6802EA16
:100F1800040832EA0404F3D14C6824F01004022CCB
:100F2800ADD0D0F800B04FEA430E032404FA0EF413
:100F3800E5432BEA040B4C6804F0030404FA0EF4AE
:100F480044EA0B0404604C6824F01004013C012CB2
:100F580012D8846805EA040BCC6804FA0EF444EA53
:100F68000B048460446824EA020B4C68C4F3001242
:100F78009A4042EA0B024260C26815408A6802FA47
:100F88000EF22A43C2604A6812F0805FB8D000228D
:100F980001927A6C42F480427A647A6C02F480425C
:100FA8000192019A23F0030202F1804202F59C3279
:100FB800956803F003044FEA840B0F2404FA0BF43A
:100FC80025EA040E60453FF46FAF484517D05045F9
:100FD80017D0144CA04216D004F58064A04214D057
:100FE80004F58064A04212D004F58064A04210D0B9
:100FF80004F58064A0420CBF0724082455E70124A7
:1010080053E7022451E703244FE704244DE705245E
:101018004BE7062449E703B0BDE8F08F00380240EB
:10102800003C0140000C0240000002400004024065
:10103800000802400AB18161704709048161704764
:10104800002800F0B88070B4034690F839200AB937
:1010580080F83820242283F839201968CA6822F4D5
:101068000052CA6019680A6922F44052D8680243DB
:101078000A611868C16821F4164121F00C019A68C8
:101088001C6922435C692243DC6922430A43C2602B
:1010980019684A6922F44072986902434A61DA6918
:1010A800B2F5004F1CD01868444A904257D002F558
:1010B8008062904253D05A689400414AB2FBF4F4DB
:1010C800404DA5FB04214909642202FB114212018B
:1010D8003232A5FB0242090101EB5212826052E052
:1010E800196802F1804202F5104291421DD002F5C2
:1010F8008062914219D05A685500314AB2FBF5F521
:10110800304EA6FB05204409642202FB1452D2008B
:101118003232A6FB0202C2F3421000EB041012099D
:1011280002F4F87202448A602DE05A685500244A95
:10113800B2FBF5F5234EA6FB05204409642202FB09
:101148001452D2003232A6FB0202C2F3421000EB64
:101158000410120902F4F87202448A6013E05A6813
:101168009400174AB2FBF4F4164DA5FB0421490973
:10117800642202FB114212013232A5FB024209012C
:1011880001EB5212826019680A6922F490420A61DE
:1011980019684A6922F02A024A611968CA6842F441
:1011A8000052CA600020D863202283F8392083F8CF
:1011B8003A2070BC70470120704700BF0010014002
:1011C800906EFB0A1F85EB5190F83930DBB2202B6B
:1011D80044D1002944D0002A44D090F83830012B5B
:1011E80042D0012380F838300023C363212380F8DC
:1011F80039308284C284C38C9BB2E3B90268136815
:1012080013F0400FFBD0202380F83930002380F8FA
:101218003830184670470268136813F0800FFBD007
:101228000B88C3F3080353600369ABB90231C38C5D
:101238009BB2002BE2D0C38C013B9BB2C384836872
:10124800B3F5805FE7D003681A6812F0800FFBD00F
:1012580011F8012B5A60EAE70131E8E702207047EC
:1012680001207047012070470220704790F83A30FB
:10127800DBB2202B4BD100294BD0002A4BD090F861
:101288003830012B49D0012380F838300023C3635C
:10129800222380F83A308285C285C38D9BB213BB66
:1012A800202380F83A30002380F8383018467047F9
:1012B8000268136813F0200FFBD003692BB9536839
:1012C800C3F3080321F8023B09E05368DBB221F8B5
:1012D800013B04E05B6803F07F0301F8013BC38D29
:1012E8009BB2002BDCD0C38D013B9BB2C3858368C6
:1012F800B3F5805FDCD003681A6812F0200FFBD0CA
:101308000269002AE6D15B6801F8013BE7E70220A1
:1013180070470120704701207047022070477047CE
:10132800C0B110B504460379012B15D00123037110
:1013380043795BB1022363712268136843F00403A5
:101348001360012363710020207110BD0371FFF742
:10135800E6FFEFE7012070470220F6E7002103E0EF
:101368000B4B5B58435004310A480B4B42189A42C6
:10137800F6D30A4A02E0002313600432084B9A426B
:10138800F9D3AFF30080FEF75FFFFFF773F8FEE7CE
:10139800FC13000800000020300400203004002066
:1013A800B0050020FEE70000024B13B10248FEF72B
:1013B8002BBF7047000000001D020008F8B500BFF1
:1013C800F8BC08BC9E467047F8B500BFF8BC08BC1E
:0413D8009E46704776
:1013DC00303132333435363738394142434445465F
:0413EC0008000020D5
:0813F000B1130008F10100082F
:0413F800C90100081F
:1013FC00080000200000000000000000F4020020A3
:10140C005C030020C403002000000000000000006A
:10141C0000000000000000000000000000000000C0
:10142C0000000000000000000000000000000000B0
:10143C0000000000000000000000000000000000A0
:10144C000000000000000000000000000000000090
:10145C000000000000000000000000000000000080
:10146C000000000000000000000000000000000070
:10147C000000000000000000000000000000000060
:10148C000000000000000000000000000000000050
:10149C000000000000000000000000000000000040
:1014AC0001000000000000000E33CDAB34126DE6DD
:1014BC00ECDE05000B000000000000000000000046
:1014CC000000000000000000000000000000000010
:1014DC000000000000000000000000000000000000
:1014EC0000000000000000000000000000000000F0
:1014FC0000000000000000000000000000000000E0
:040000050800136577
:00000001FF
