:020000040800F2
:100000000000022049110008911100089111000818
:1000100091110008911100089111000800000000E2
:100020000000000000000000000000009111000826
:1000300091110008000000009111000891110008C2
:1000400000000000000000000000000000000000B0
:1000500000000000000000000000000000000000A0
:100060000000000000000000000000000000000090
:100070000000000000000000000000000000000080
:100080000000000000000000000000000000000070
:100090000000000000000000000000000000000060
:1000A0000000000000000000000000000000000050
:1000B0000000000000000000000000000000000040
:1000C0000000000000000000000000000000000030
:1000D0000000000000000000000000000000000020
:1000E0000000000000000000000000000000000010
:1000F0000000000000000000000000000000000000
:1001000000000000000000000000000000000000EF
:1001100000000000000000000000000000000000DF
:1001200000000000000000000000000000000000CF
:1001300000000000000000000000000000000000BF
:1001400000000000000000000000000000000000AF
:10015000000000000000000000000000000000009F
:10016000000000000000000000000000000000008F
:10017000000000000000000000000000000000007F
:08018000000000000000000077
:100188000348044B834202D0034B03B1184770471E
:100198003004002030040020000000000548064913
:1001A8000B1AD90F01EBA301491002D0034B03B17D
:1001B8001847704730040020300400200000000079
:1001C80010B5064C237843B9FFF7DAFF044B13B197
:1001D8000448AFF300800123237010BD30040020D1
:1001E80000000000A811000808B5044B1BB1044921
:1001F8000448AFF30080BDE80840CFE700000000E6
:1002080034040020A8110008002301461A461846A5
:1002180000F03EB838B50A4C0A4D641BA4100AD049
:1002280004F18043013B05EB8305013C55F8043993
:100238009847002CF9D1BDE8384000F0B7BF00BF9F
:10024800E0110008DC11000870B50D4E0D4D761B4D
:10025800B61006D00024013455F8043B9847A6424E
:10026800F9D1094E094D761B00F09AFFB61006D059
:100278000024013455F8043B9847A642F9D170BDD3
:10028800D4110008D4110008DC110008D4110008AA
:10029800F0B4184C2568D5F8484114B365681F2D8B
:1002A80024DC38B9AB1C0135656044F82310002004
:1002B800F0BC704704EB85060127C6F8882007FACA
:1002C80005F2D4F88871022847EA0207C4F8887151
:1002D800C6F80831E6D1D4F88C311A43C4F88C2119
:1002E800E0E705F5A674C5F84841D7E74FF0FF30B9
:1002F800DEE700BFD011000810B5002313600144E9
:10030800182311F8010B00FA03F41068083B204485
:1003180013F1080F1060F4D110BD130E43540144BB
:10032800130C4B70130A8B70CA70704730B585B0C8
:10033800054601AA0021FFF7DFFF02AA284604218B
:10034800FFF7DAFF03AA08212846FFF7D5FF00F0D8
:1003580079FA00BF00BF00BF00BFDDE9012382EAD0
:100368000304039B1C40544000BF00BF00BF00BFF4
:1003780000F070FA224628460021FFF7CEFF2A46F1
:100388000421722000F006F9002005B030BD30B518
:1003980085B0044601AA0021FFF7AEFF02AA204655
:1003A8000421FFF7A9FF03AA08212046FFF7A4FFAD
:1003B80000F048FA00BF00BF00BF00BFDDE901231D
:1003C80003999D1A8D40C3EB42031D4400BF00BF33
:1003D80000BF00BF00F03EFA2A4620460021FFF782
:1003E8009CFF22460421722000F0D4F8002005B0BA
:1003F80030BD7FB505466A460021FFF77DFF01AA9B
:1004080028460421FFF778FF02AA28460821FFF7AB
:1004180073FF03AA0C212846FFF76EFF039E00F026
:1004280011FAF64300BF00BF00BF00BF039A02984D
:10043800DDE90013B41A8440C6EB42064B4034444D
:100448001C4013404B405C4000BF00BF00BF00BFD2
:1004580000F000FA224628460021FFF75EFF2A46F0
:100468000421722000F096F8002004B070BD00004E
:1004780008B500F04BF900F089F900F0C3F900F075
:1004880071F8094A0C21612000F068F8074A0C212C
:10049800622000F063F8064A1021632000F05EF83D
:1004A80000F0D2F8FCE700BF350300089703000806
:1004B800FB03000801207047F0B500234F1C83425E
:1004C80001DB002020E017F8135011F81340A5F1C4
:1004D8003006F6B2092E0BD8D654A4F13005EEB288
:1004E800092E14D8D45C44EA0514D4540133E6E741
:1004F800A5F14106052E02D8373DD554EDE7A5F103
:100508006106052E01D90120F0BD573DF5E7A4F19C
:100518004105052D02D8A4F13705E3E7A4F16105EB
:10052800052DF0D8D55C573C45EA0414DDE70000FA
:1005380070B5094E34680F2C0BDCFF2909D806EB7F
:100548000415C5E90212013428712B7434600020A7
:1005580070BD0120FCE700BF4C0400200023FFF71A
:10056800E7BF000008B5084A01217620FFF7F6FF2B
:10057800064A01217720FFF7F1FFBDE80840044A49
:1005880001217920FFF7EABFBD0400080106000831
:10059800DD050008F8B514460E4600F075F90C4F55
:1005A800651EC4F1010463199E4204DCBDE8F840ED
:1005B8000A2000F069B915F8013F1B09F85C00F042
:1005C80063F92B7803F00F03F85C00F05DF9EAE7B4
:1005D800C011000807B5074B0DF107021B688DF81D
:1005E800073001217220FFF7D5FF002003B05DF826
:1005F80004FB00BF4C04002070B5124801688CB0A1
:10060800CDB20024E3B2AB4204F1010409DB01EBF3
:1006180041016A46C9B27220FFF7BCFF00200CB046
:1006280070BD03EB43020CAE00EB031332441E799A
:1006380002F8306C9E681B7C02F82F6C02F82E3C86
:10064800E0E700BF4C0400202DE9F0412E4CADF549
:10065800427D00F007F922680023211D9A4204DC3C
:1006680007D10DF5427DBDE8F0811D016D5C854225
:100678003DD104EB03151E012B7CDB0714D50023A9
:100688008DF8083000F0EEF88DF8080100F0EAF86F
:1006980002AA8DF8090142A90120FFF70DFF0028E1
:1006A800DFD19DF80830AB600025A7190DF58478D7
:1006B800BB68B5EB430F1CD300F0D4F80A2801D06F
:1006C8000D28CED1344402AAA56842A92846FFF7CE
:1006D800F3FE0028C5D1E9B2E36802A8984701AA49
:1006E8008DF8040001217A20FFF754FFB9E70133A0
:1006F800B4E700F0B7F80A28B3D00D28B1D005F850
:1007080008000135D4E700BF4C04002030B50322AF
:1007180093B04FF4A023CDE9062302214FF48003C0
:10072800CDE90C130C20C423CDE90E0304240723C0
:10073800012506A8CDE91043099500F0BDF8044647
:1007480000B1FEE70146CDE903000F23059001A89B
:10075800CDE9013500F050FA094B00945A6B09486D
:1007680042F040025A635B6B03F040030093009B26
:10077800054B0360447100F0C5FC13B030BD00BFE9
:1007880000380240540500200008065030B5022306
:1007980089B04FF4C062CDE903230122CDE90523D6
:1007A800144C15480025072301950793236B134321
:1007B8002363236B1340019303A9019B00F0B4FA50
:1007C8000E480F4902954FF41643C0E90013C0E9DB
:1007D80002550C23056185614361636C43F0100386
:1007E8006364636C03F010030293029B00F08AFBBE
:1007F80009B030BD003802400000024070050020FA
:10080800001001407FB50D4B0D48002100911A6B77
:1008180042F001021A631B6B039103F0010300937A
:10082800009B4FF480520123CDE9012301A9022343
:10083800049300F079FA07B05DF804FB0038024031
:1008480000000240024801224FF4805100F054BBDE
:1008580000000240024800224FF4805100F04CBBD7
:100868000000024013B5074C41F2883301220DF114
:100878000701204600F0F9FB0028F5D19DF8070094
:1008880002B010BD7005002007B541F288338DF81D
:10089800070001220DF10701024800F0A1FB03B097
:1008A8005DF804FB70050020024B1868421C1A60B2
:1008B800704700BF500500200368F7B5DD07014603
:1008C8003BD40B689C0700F18B800B681B0700F179
:1008D800D6800B685F072AD500230193904B914C73
:1008E8001A6C42F080521A641B6C03F08053019317
:1008F800019B236843F480732360FFF7D5FF054607
:100908002368DA0540F1DD808B68854C012B40F0C7
:10091800DF80236F43F001032367FFF7C5FF804D96
:10092800044641F288362B6F9B0740F1F2808A69B2
:10093800002A40F0FF80002015E0794B9A6802F009
:100948000C02042A07D09A6802F00C02082A0CD17B
:100958005A68500209D5724B1B689A03B1D54B6887
:10096800002BAED1012003B0F0BD4A68B2F5803F3C
:1009780012D11A6842F480321A60FFF795FF684D69
:10098800694E04462B689B039BD4FFF78DFF001B21
:10099800B042F7D90320E6E7614CB2F5A02F2368EF
:1009A80007D143F480232360236843F48033236012
:1009B800E3E723F480332360236823F48023236050
:1009C800002ADAD1FFF770FF574E054623689F03C8
:1009D8007FF577AFFFF768FF401BB042F6D9D9E73C
:1009E8004F4B9A6812F00C0F07D09A6802F00C026D
:1009F800082A16D15B685D0213D4494B1A6894071C
:100A080002D5CA68012AADD11C68F82292FAA2F26E
:100A1800B2FA82F00A69824024F0F80002431A60B0
:100A280053E7CA68414BDAB101221A60FFF73CFF6D
:100A38003B4C0546236898070CD52068F82393FAA1
:100A4800A3F3B3FA83F20B69934020F0F80213433F
:100A580023603AE7FFF728FF401B0228EAD999E705
:100A68001A60FFF721FF2E4D04462B689A077FF581
:100A78002CAFFFF719FF001B0228F6D98AE74A694D
:100A88002B4B7AB101221A60FFF70EFF244D044662
:100A98006B6F9E073FF51DAFFFF706FF001B02288F
:100AA800F6D977E71A60FFF7FFFE1D4D04466B6F16
:100AB80098077FF50EAFFFF7F7FE001B0228F6D95F
:100AC80068E7FFF7F1FE401B02287FF619AF61E7E0
:100AD800052B04D1236F43F00403236719E7226F22
:100AE80022F001022267226F22F004022267002B03
:100AF8007FF413AFFFF7D8FE41F288360546236F1F
:100B08009F077FF514AFFFF7CFFE401BB042F6D921
:100B180040E7FFF7C9FE001BB0427FF604AF39E794
:100B2800003802400070004000E1F505000047422F
:100B3800800E47422D4CA36803F00C03082B3FF4AA
:100B480011AF2B4D0023022A2B6040D1FFF7ACFEDA
:100B5800284F06462368980133D447F6C07797FA9A
:100B6800A7F74FF44032B7FA87F792FAA2F24FF09C
:100B78007060B2FA82F690FAA0F0D1E90732134316
:100B88004A6A02FA07F78A6A5208013AB2403B43B6
:100B98001343CA6AB0FA80F002FA00F003436360B4
:100BA80001232B60FFF780FE104C124D014623688D
:100BB8009A013FF5C0AEFFF777FE401AA842F6D972
:100BC800E8E6FFF771FE801BB842C3D9E2E6FFF7FB
:100BD8006BFE084D014623689B017FF5ACAEFFF71D
:100BE80063FE401AA842F6D9D4E600BF0038024096
:100BF8006000474280841E00F8B5494B1A6802F02D
:100C08000F028A4205461AD32A68900720D4D207D1
:100C180026D4434B1A6802F00F028A4270D828681B
:100C2800430775D410F0080011D03E4A296993682B
:100C380023F4604343EAC1039360002007E0CAB28B
:100C48001A701B6803F00F038B42DDD00120F8BD3A
:100C58003448AC68836823F0F00323438360D6E705
:100C68006A68304B012A1DD11B6813F4003FEDD090
:100C78002C4CA36823F003031343A360FFF714FE6F
:100C88006B68012B064641F2883715D1A36803F03B
:100C98000C03042BBDD0FFF707FE801BB842F5D923
:100CA8000320D4E7901E01281B6802D813F0007FA8
:100CB800DDE713F0020FDAE7022B0AD1A36803F08D
:100CC8000C03082BA5D0FFF7EFFD801BB842F5D920
:100CD800E6E7032B0FD1A36803F00C030C2B98D085
:100CE800FFF7E2FD801BB842F5D9D9E7FFF7DCFD35
:100CF800801BB842D4D8A36813F00C0FF6D188E74C
:100D0800CAB21A701B6803F00F038B429ED186E7A4
:100D18000449EB688A6822F4E0521A438A6081E742
:100D2800003C0240003802402DE9F04F6E4ADFF8DF
:100D3800C081DFF8C09185B000230C6801279F406F
:100D480007EA040537EA040440F0B9804C6824F047
:100D5800100ABAF1020F16D14FEAD30E00EB8E0E2D
:100D680003F0070BDEF820604FEA8B0B4FF00F0CF7
:100D78000CFA0BFC26EA0C0C0E6906FA0BF646EA8E
:100D88000C06CEF82060D0F800B04FEA430E4FF0C2
:100D9800030C0CFA0EFC6FEA0C062BEA0C0B04F0A1
:100DA800030C0CFA0EFC0AF1FF3A4CEA0B0CBAF1F0
:100DB800010F0196C0F800C015D8D0F808C006EA9F
:100DC8000C0CCE6806FA0EFA4AEA0C0CC0F808C0F9
:100DD800D0F804C02CEA0707C4F3001C0CFA03FC83
:100DE8004CEA07074760C768019E37408E6806FAD5
:100DF8000EF63E43C660E60061D54FF0000BCDF815
:100E08000CB0D8F84470394E47F48047C8F844709D
:100E1800D8F8447007F480470397039F23F003072B
:100E280007F1804707F59C3703F0030ED7F808A0B1
:100E38004FEA8E0E4FF00F0C0CFA0EFCB0422AEA65
:100E48000C0C43D006F58066B04241D006F58066AA
:100E5800B0423FD006F58066B0423DD006F58066C8
:100E6800B0423BD048453BD006F50066B04239D089
:100E780006F58066B0420CBF0726082606FA0EF66D
:100E880046EA0C06BE601668EF4314F4803F0CBFB8
:100E98003E402E431660566814F4003F0CBF3E4097
:100EA8002E435660966814F4801F0CBF3E402E43B4
:100EB8009660D668A40254BF3E402E43D6600133E4
:100EC800102B7FF43AAF05B0BDE8F08F5E46D5E74A
:100ED8000126D3E70226D1E70326CFE70426CDE78C
:100EE8000526CBE70626C9E7003C01400000024082
:100EF80000380240001402400AB1816170470904B9
:100F0800FBE7000070B5002866D090F8393003F090
:100F1800FF020BB980F838200168C2680569C46906
:100F2800242380F83930CB6823F40053CB600B6955
:100F380023F4405313430B618368CA682B43456904
:100F480022F416422B4322F00C0223431343CB60B6
:100F58004B69826923F440731343B4F5004F4B6126
:100F68001E4A43684FF0640528D15B00B2FBF3F2D8
:100F7800B2FBF5F605FB1622D3003233B3FBF5F3CB
:100F880003F007025B0002EB061203F4F873134444
:100F98008B600B6923F490430B614B6923F02A03A0
:100FA8004B61CB6843F40053CB6020220023C3631A
:100FB80080F8392080F83A20184670BD9B00B2FBB3
:100FC800F3F2B2FBF5F605FB16231B013233B3FB34
:100FD800F5F303EB0613DBE70120EEE7906EFB0A5F
:100FE80090F83930202B3ED100293AD0002A38D049
:100FF80090F83830012B36D0012380F838300023A0
:10100800C363212380F8393003688284C284C28C88
:1010180092B252B91A685206FCD5202380F83930AA
:10102800002380F8383018467047C28C013A92B2D3
:10103800C2848268B2F5805F0CD11A681206FCD5AA
:101048000A88C2F308025A6002690AB90231DEE767
:101058000131DCE71A681206FCD511F8012B5A6039
:10106800D5E7012070470220704710B590F83A3054
:10107800202B44D1002940D0002A3ED090F83830A7
:10108800012B3CD0012380F838300023C36322238E
:1010980080F83A308285C285C38D9BB233B920224D
:1010A80080F83A2080F83830184610BDC38D0268A1
:1010B800013B9BB2C3858368B3F5805F11D1136888
:1010C8009C06FCD50369526833B90B46C2F3080283
:1010D80023F8022B1946DFE70B46D2B223F8012B7F
:1010E800F8E713689B06FCD5046952684B1C0CB9D9
:1010F8000A70EFE702F07F02FAE70120D5E7022045
:10110800D3E7704710B50446A8B10379012B14D072
:10111800437903F0FF0213B90271FFF7F2FF226867
:1011280002236371136843F0040313600020012352
:101138006371207110BD0120FCE70220FAE700006E
:10114800002103E00B4B5B58435004310A480B4B1A
:1011580042189A42F6D30A4A02E000231360043286
:10116800084B9A42F9D3AFF30080FFF76DF8FFF709
:101178007FF9FEE7E011000800000020300400209D
:1011880030040020B0050020FEE70000024B13B138
:101198000248FFF739B87047000000001D02000838
:1011A800F8B500BFF8BC08BC9E467047F8B500BF4C
:0811B800F8BC08BC9E4670471C
:1011C000303132333435363738394142434445467D
:0411D00008000020F3
:0811D40095110008F10100086B
:0411DC00C90100083D
:1011E000080000200000000000000000F4020020C1
:1011F0005C030020C4030020000000000000000089
:1012000000000000000000000000000000000000DE
:1012100000000000000000000000000000000000CE
:1012200000000000000000000000000000000000BE
:1012300000000000000000000000000000000000AE
:10124000000000000000000000000000000000009E
:10125000000000000000000000000000000000008E
:10126000000000000000000000000000000000007E
:10127000000000000000000000000000000000006E
:10128000000000000000000000000000000000005E
:1012900001000000000000000E33CDAB34126DE6FB
:1012A000ECDE05000B000000000000000000000064
:1012B000000000000000000000000000000000002E
:1012C000000000000000000000000000000000001E
:1012D000000000000000000000000000000000000E
:1012E00000000000000000000000000000000000FE
:040000050800114995
:00000001FF
