:020000040800F2
:1000000000000220ED15000835160008351600081E
:1000100035160008351600083516000800000000E7
:10002000000000000000000000000000351600087D
:1000300035160008000000003516000835160008C7
:1000400000000000000000000000000000000000B0
:1000500000000000000000000000000000000000A0
:100060000000000000000000000000000000000090
:100070000000000000000000000000000000000080
:100080000000000000000000000000000000000070
:100090000000000000000000000000000000000060
:1000A0000000000000000000000000000000000050
:1000B0000000000000000000000000000000000040
:1000C0000000000000000000000000000000000030
:1000D0000000000000000000000000000000000020
:1000E0000000000000000000000000000000000010
:1000F0000000000000000000000000000000000000
:1001000000000000000000000000000000000000EF
:1001100000000000000000000000000000000000DF
:1001200000000000000000000000000000000000CF
:1001300000000000000000000000000000000000BF
:1001400000000000000000000000000000000000AF
:10015000000000000000000000000000000000009F
:10016000000000000000000000000000000000008F
:10017000000000000000000000000000000000007F
:08018000000000000000000077
:100188000348044B834202D0034B03B1184770471E
:100198003004002030040020000000000548064913
:1001A8000B1AD90F01EBA301491002D0034B03B17D
:1001B8001847704730040020300400200000000079
:1001C80010B5064C237843B9FFF7DAFF044B13B197
:1001D8000448AFF300800123237010BD30040020D1
:1001E800000000004C16000808B5044B1BB1044978
:1001F8000448AFF30080BDE80840CFE700000000E6
:10020800340400204C160008002301461A461846FC
:1002180000F03EB838B50A4C0A4D641BA4100AD049
:1002280004F18043013B05EB8305013C55F8043993
:100238009847002CF9D1BDE8384001F009BA00BF51
:10024800841600088016000870B50D4E0D4D761BFB
:10025800B61006D00024013455F8043B9847A6424E
:10026800F9D1094E094D761B01F0ECF9B61006D00C
:100278000024013455F8043B9847A642F9D170BDD3
:100288007816000878160008801600087816000806
:10029800F0B4184C2568D5F8484114B365681F2D8B
:1002A80024DC38B9AB1C0135656044F82310002004
:1002B800F0BC704704EB85060127C6F8882007FACA
:1002C80005F2D4F88871022847EA0207C4F8887151
:1002D800C6F80831E6D1D4F88C311A43C4F88C2119
:1002E800E0E705F5A674C5F84841D7E74FF0FF30B9
:1002F800DEE700BF741600082DE9F04187784679DB
:1003080090F8098042780379057A3F0236044FEA6B
:10031800084808EB056807EB0247C57AC27806EB80
:100328000366C3794544174490F80A8002781E444E
:100338008379044607EB026706EB032605EB0828DA
:1003480000F0D0FB00BF00BF00BF00BF87EA060572
:1003580005EA08057D4000BF00BF00BF00BF00F0F0
:10036800C9FB290E2A0C2B0A21706270E570A37054
:1003780022460421722000F0F3FA0020BDE8F08143
:10038800F8B545784679477A81780279037A2D0459
:1003980036043F0405EB012506EB0266C178C279F5
:1003A80007EB0367C37A0D441644017882791F442A
:1003B800837A044605EB016506EB022607EB032763
:1003C80000F090FB00BF00BF00BF00BF731B03FA23
:1003D80007F7C6EB45053D4400BF00BF00BF00BF9F
:1003E80000F088FB290E2A0C2B0A21706270E57038
:1003F800A37022460421722000F0B2FA0020F8BD52
:100408002DE9F8430446457B94F80290007B94F864
:100418000580E77B61782279637A2D0405EB006516
:100428004FEA0929207A4FEA08483D4409EB014977
:10043800A77BE17808EB02681B04E27A03EB006310
:10044800E079134405EB0727A279A57A8944217836
:10045800804409EB016908EB022803EB0525FE43FC
:1004680000F040FB00BF00BF00BF00BFF31B03FA52
:1004780005F5C6EB4706354489EA08087D4005EAD4
:10048800080585EA090500BF00BF00BF00BF00F0EE
:1004980031FB290E2A0C2B0A21706270E570A370BB
:1004A80022460421722000F05BFA0020BDE8F883A0
:1004B80008B500F073FA00F0B3FA00F0F1FA00F0B2
:1004C800C7F8094A0C21612000F0F8F8074A0C2106
:1004D800622000F0F3F8064A1021632000F0EEF8DD
:1004E80000F004F9FCE700BF0103000889030008D5
:1004F800090400080120704738B50A4B0A4D1C78DA
:10050800722000F013FB230904F00F04E85C00F0EC
:100518000DFB285D00F00AFB0A2000F007FB002015
:1005280038BD00BF4C04002064160008F0B51C4F0D
:100538003E6816F0FF0C8DB015D00022134603EB71
:1005480043010CA807EB031301320144D2B21D7911
:100558009C68187C01F8305C6245134601F82F4C02
:1005680001F82E0CEBDB06EB4606F6B2722000F023
:10057800DDFA7EB16D460B4F2E4415F8014B230969
:1005880004F00F04F85C00F0D1FA385D00F0CEFA00
:10059800B542F2D10A2000F0C9FA00200DB0F0BD32
:1005A8004C0400206416000800284FDDF0B5002335
:1005B8004F1C14E0A5F14104052C30D8373DACF1AF
:1005C8003006ECB2F5B2092DD45402EB030E17D85D
:1005D80044EA06148EF80040013398421DD017F8FB
:1005E800135011F813C0A5F13004E4B2092CE1D876
:1005F800D45402EB030EACF13006F5B2092DE7D95D
:10060800ACF14105052D14D8ACF13705013344EAA6
:10061800051498428EF80040E1D10020F0BDA5F104
:100628006104052C10D8573DECB2D45402EB030EEC
:10063800E1E7ACF16105052D06D8ACF1570544EAB0
:1006480005148EF80040C7E70120F0BD0020704770
:10065800164B1A680F2A27DC03EB021170B41448F2
:10066800C8600125762450190C7110284FF0000439
:100678008D600C74186015D003EB001077210171A0
:10068800911C0C4E856010290474C660196009D04D
:1006980003EB011108488D60033279260C741A6047
:1006A8000E71C86070BC7047704700BF4C040020D2
:1006B800FD040008350500080105000870B40A4D5E
:1006C8002B680F2B0DDCFF290BD805EB0316002434
:1006D8003071013334742046C6E902122B6070BCB5
:1006E8007047012070BC70474C0400202DE9F04190
:1006F800994EADF5407D00F005FA3368002B40F3C4
:10070800FB803279824200F0FA80012B6FD0327D73
:10071800824200F0F780022B69D096F824208242AA
:1007280000F0F380032B62D096F83420824200F068
:10073800EF80042B5BD096F84420824200F0EB80D7
:10074800052B54D096F85420824200F0E780062BFF
:100758004DD096F86420824200F0E380072B46D003
:1007680096F87420824200F0DF80082B3FD096F87C
:100778008420824200F0DB80092B38D096F8942040
:10078800824200F0D7800A2B31D096F8A42082420A
:1007980000F0D3800B2B2AD096F8B420824200F0C8
:1007A800CF800C2B23D096F8C420824200F0CB8057
:1007B8000D2B1CD096F8D420824200F0C7800E2B57
:1007C80015D096F8E420824200F0C3800F2B0ED09B
:1007D80096F8F420824208BF4FF00F080AD04FF075
:1007E8001008984506D10DF5407DBDE8F081984682
:1007F8009845F8D006EB08134FEA08181A7CD20778
:1008080019D49B685B0044D040AD002406EB080770
:1008180007E00D28E7D0BB6805F8010BB4EB430FE0
:1008280037D200F06FF90A2804F10104F1D10DF56F
:10083800407DBDE8F08100F065F9044600F062F9FA
:10084800A0F13003DBB2092B0CD9A0F14103DBB2D4
:10085800052B48D9A0F16103DBB2052BC3D8A0F161
:100868005703DBB2A4F13002D1B2092937D9A4F178
:100878004102D2B2052A3AD9A4F16102D2B2052ABC
:10088800B1D8573C43EA0413DBB206EB0802936085
:10089800B8E700F037F90A2801D00D28A3D146445B
:1008A8006A46B46840A92046FFF77EFE00289AD120
:1008B800E1B2F368294D6846984704467A2000F06B
:1008C80035F9C4F3071304F00F04E85C00F02EF9BF
:1008D800285D00F02BF90A2000F028F983E743EAA5
:1008E8000213DBB2D1E7A0F13703DBB2BAE7373C3A
:1008F80043EA0413DBB2C8E74FF0000878E74FF08B
:10090800000877E74FF0010874E74FF0020871E735
:100918004FF003086EE74FF004086BE74FF0050847
:1009280068E74FF0060865E74FF0070862E74FF001
:1009380008085FE74FF009085CE74FF00A0859E735
:100948004FF00B0856E74FF00C0853E74FF00D082F
:1009580050E74FF00E084DE74C04002064160008DD
:1009680070B50E46144600F0E1F87EB10A4D2644F3
:1009780023781B09E85C00F0D9F814F8013B03F070
:100988000F03E85C00F0D2F8A642F1D1BDE8704050
:100998000A2000F0CBB800BF64160008F0B50222A8
:1009A80095B003244FF4A0254FF48003CDE9084502
:1009B800CDE90E2301210C24C4250422072308A80D
:1009C800CDE91045CDE912230B9100F0C1F800B133
:1009D800FEE7044600220023014606900F26012761
:1009E80002A8CDE90423CDE9026700F0CBFA094B50
:1009F80001945A6B0848094942F040025A635B6BFC
:100A0800016003F040030193019B447100F0CAFDAB
:100A180015B0F0BD0038024054050020000806500B
:100A280030B5012289B04FF4C06002210223CDE91C
:100A38000201CDE90423164D16480024072300942B
:100A480006932B6B43F001032B632B6B03F001031D
:100A5800009302A9009B00F05FFB0F4801940F4B25
:100A680003606B6C846043F010036B646B6CC46050
:100A780003F0100301934FF416420C23019904610B
:100A880084614260436100F06FFC09B030BD00BF73
:100A980000380240000002407005002000100140AC
:100AA80070B588B00D4B0E48002201921A6B42F0C7
:100AB80001021A631B6B03F0010301930022022356
:100AC8004FF48054012502A9CDE90245CDE904235C
:100AD800019E00F021FB08B070BD00BF0038024045
:100AE80000000240024801224FF4805100F038BC57
:100AF80000000240024800224FF4805100F030BC50
:100B08000000024010B5084C82B041F2883301223F
:100B18000DF10701204600F0F1FC0028F5D19DF801
:100B2800070002B010BD00BF7005002010B582B0EC
:100B3800044641F2883301220DF1070103488DF87C
:100B4800074000F08DFC02B010BD00BF700500200A
:100B5800F0B50268D70783B033D5A2498B6803F094
:100B68000C03042B00F007818B6803F00C03082B9F
:100B780000F0FD804568B5F5803F00F02581B5F5AA
:100B8800A02F00F08D81974E336823F480333360B3
:100B9800336823F480233360002D40F01A81924B90
:100BA800924F1C68611C1960274405E00131B94265
:100BB8004FF0010500F099803468A403F6D405B11C
:100BC8001960910733D5874B996811F00C0F00F025
:100BD800E080996801F00C01082900F0D680C2680D
:100BE800002A00F04581824A7F4B7E490124146027
:100BF8001A6814191C600C68A6070AD40D68AD079A
:100C080002F1020404D409688F0702F1030428D50D
:100C18001C60744CF822216892FAA2F20369B2FAB5
:100C280082F2934021F0F8010B4323600268170712
:100C380033D54269D2B96F496B4B0A601A68694962
:100C4800541C1C604C6FA60726D54D6FAD0702F1EA
:100C5800020440F12F81496F890702F1030440F132
:100C68002981043203201A6003B0F0BD614A5E4B4B
:100C78005C49012414601A6814191C604C6FA6079B
:100C88000AD44D6FAD0702F1020404D4496F8F07EF
:100C980002F10304E5D51C600268530741D5514AA7
:100CA800554D00230193116C4F4B41F08051116455
:100CB800126C02F080520192019A2A6842F4807202
:100CC8002A6019684A1C1A602C68E70500F1A6809A
:100CD8002C68E60501F1020200F19F802C68E4050A
:100CE80001F1030200F1998004310320196003B077
:100CF800F0BD3C4C216F41F001012167511C02F508
:100D08009C52384D19600A32002605E001318A42AA
:100D18004FF0010600F0A8802C6FA707F6D506B1A2
:100D28001960836903B32F498A6802F00C02082A04
:100D380036D0022B314A2C4B00F0BF8000251560BD
:100D48001C68621C04F5F41408461A6004F2824414
:100D580005E00132A2424FF0010500F085800168EC
:100D68008901F6D405B11A60002003B0F0BD4B68C4
:100D78005E027FF5FFAE1B4B1B689D037FF521AF1D
:100D88004368002B7FF41DAF0AE05B685B023FF508
:100D980026AF144B1B689F0705D5C368012B02D0EB
:100DA800012003B0F0BD0F4DF8212C6891FAA1F194
:100DB8000369B1FA81F124F0F8048B402343170743
:100DC8002B607FF56AAF34E706490B6843F480333C
:100DD8000B60054B054D1C68024F611C19602544CA
:100DE800002613E0003802405005002002E1F50516
:100DF80000004742800E47420070004060004742B2
:100E08000131A9424FF001063FF46FAF3C68A403DB
:100E1800F6D5002E7FF4D4AED3E61A608568012D8E
:100E28003FF467AF052D00F09980524E316F21F0E5
:100E380001013167316F21F004013167002D7FF422
:100E48005DAF511C02F59C5219600A3205E0013170
:100E580091424FF001053FF448AF346FA407F6D430
:100E6800002D7FF45DAF5CE703201A6003B0F0BD8E
:100E78004149424B0A601A683E49541C1C600C6880
:100E8800A60775D50D68AD0702F1020405D50968F6
:100E9800890702F103043FF5E4AE02681C60C6E668
:100EA800344B196841F480211960196841F4803184
:100EB80019608EE702681C60EFE6002616601D6860
:100EC8006A1C05F5F4151A6005F2824504E0013242
:100ED800AA424FF00106C7D00C68A701F7D406B1A3
:100EE8001A6047F6C07696FAA6F64FF44031B6FA7D
:100EF80086F691FAA1F14FF07064B1FA81F594FA8F
:100F0800A4F4D0E909C1D0E9072E4908C76A0CFA48
:100F180006F642EA0E020139A940B4FA84F03243D7
:100F28000A4307FA00F0134C154902430120626096
:100F380008601868421C00F5F4101A6000F282403C
:100F4800002504E0013282424FF001058CD021686F
:100F58008E01F7D5002D7FF406AF05E705490C6F24
:100F680044F004040C670C6F44F001040C67C5E6F8
:100F780002685CE600380240000047425005002045
:100F880060004742614A136803F00F038B4208D29E
:100F9800CBB21370136803F00F038B4201D001200A
:100FA80070470368F0B59D0706D5594C8568A26857
:100FB80022F0F0022A43A260DC0727D54468012CFE
:100FC80069D0A21E524D012A2A6845D996072AD50A
:100FD800AA68504E22F003021443AC6037687A1CAA
:100FE8003260FF434FF0000C41F2883E06E00132C8
:100FF800BC1874454FF0010C00F28480AC6814F002
:101008000C0FF4D1BCF1000F00D032603F4C2268C5
:1010180002F00F028A4209D9CBB22370236803F089
:101028000F038B4201D00120F0BD03685A0706D593
:101038003749C4688A6822F4E05222438A6013F070
:10104800080307D0324A0169936823F4604343EAEE
:10105800C10393600020F0BD9701E4D5AA682D4E26
:1010680022F003022243AA603768022C07F101022A
:10107800326036D107F59C570A374FF0000C04E070
:10108800013297424FF0010C28D0AC6804F00C04F0
:10109800082CF5D1B6E71E4D2A689203C3D5AA6875
:1010A8001C4E22F0030242F00102AA6037687C1C41
:1010B80007F59C5734600A374FF0000C04E0013400
:1010C800A7424FF0010C09D0AA6802F00C02042ACA
:1010D800F5D1BCF1000F99D0346097E73760032051
:1010E800F0BD07F59C570A374FF0000C04E00132B9
:1010F80097424FF0010CF1D0AC6804F00C040C2CB2
:10110800F5D17FE732600320F0BD00BF003C02400C
:1011180000380240500500202DE9F04F00230E68EA
:10112800DFF834828E4683B0844903E00133102B04
:1011380000F09B8001229A4032EA060402EA060C7B
:10114800F4D1DEF8045025F0100ABAF1020F00F0CD
:101158008F80D0F800B04FEA4309032404FA09F459
:1011680005F003072BEA040B07FA09F70AF1FF3A1F
:1011780047EA0B07BAF1010F6FEA0404076040F26F
:101188009E80C768DEF808203C4002FA09F2224334
:10119800EF00C260CAD500220192D8F8442042F478
:1011A8008042C8F84420D8F8442023F0030404F10E
:1011B800804402F4804204F59C34019203F0030752
:1011C800019AD4F80890BF000F22BA4029EA020A0F
:1011D8005B4A904224D002F58062904200F08380FE
:1011E800584A904200F08680574A904200F0898021
:1011F800564A904200F08C80554A904200F08F8009
:10120800544A904200F09280DFF8509148450CBF54
:101218004FF007094FF0080909FA07F74AEA070AE1
:10122800C4F808A00A686FEA0C07EC0354BF3A40F8
:101238004CEA02020A604C68AA0354BF3C404CEADC
:1012480004044C608C68EA0254BF3C404CEA040435
:101258008C60CA68AC0203F1010354BF3A404CEAFF
:101268000202102BCA607FF465AF03B0BDE8F08FAF
:101278004FEAD30900EB890903F00707D9F82040A2
:10128800BF004FF00F0B0BFA07FB24EA0B0ADEF83E
:101298001040BC4044EA0A04C9F82040D0F800A035
:1012A8004FEA4309032404FA09F405F003072AEA7C
:1012B800040A07FA09F747EA0A07E4430760876858
:1012C80007EA040ADEF80C7007FA09F747EA0A0782
:1012D8008760D0F804A0C5F300172AEA02029F40ED
:1012E800174347604DE74FF0010909FA07F74AEA43
:1012F800070A95E74FF0020909FA07F74AEA070AC9
:101308008EE74FF0030909FA07F74AEA070A87E761
:101318004FF0040909FA07F74AEA070A80E74FF08D
:10132800050909FA07F74AEA070A79E74FF00609B3
:1013380009FA07F74AEA070A72E700BF003C0140CA
:101348000000024000080240000C02400010024069
:10135800001402400018024000380240001C0240FD
:1013680002B9090481617047002873D070B490F8FD
:101378003920034602F0FF01002A4ED01A681E6980
:10138800242183F83910D46824F40054D3E90215D1
:10139800D4601069DC6920F4405028431061D0689B
:1013A8005D69314320F41640294320F00C002143A5
:1013B8000143D1605169986921F440710143B4F542
:1013C800004F51612CD05C68234D2449A400B1FB27
:1013D800F4F4A5FB04104009642101FB1041090144
:1013E8003231A5FB0141000100EB511191601169F7
:1013F80021F490411161516921F02A015161D168AC
:101408000025202441F40051D160DD6383F8394080
:1014180083F83A40284670BC704780F83810ADE72A
:101428005D680D4E0D496D00B1FBF5F5A6FB051085
:101438004409642101FB1451C9003231A6FB0101A2
:10144800C1F34210090900EB041001F4F8710144DA
:101458009160CCE7012070471F85EB51906EFB0A25
:1014680090F83930202B42D100293ED0002A3CD0B8
:1014780090F83830012B3AD030B421230024C463CB
:1014880080F83930C284C38C82849BB2012280F8F0
:101498003820002B2FD084680268C38C013B9BB294
:1014A800B4F5805FC38415D013681D06FCD511F808
:1014B800013B5360C38C9BB2002BEED113685B06D3
:1014C800FCD50023202280F8392080F8383030BC41
:1014D8001846704713681B06FCD50B880569C3F3CB
:1014E800080353602DB90231E4E701207047022058
:1014F80070470131DEE70268E0E700BF90F83A3054
:10150800202B46D100293CD0002A3AD090F8383018
:10151800012B3ED010B422230024C46380F83A3053
:10152800C285C38D82859BB2012280F83820A3B181
:10153800C38D8268013B9BB2B2F5805FC3850268A8
:1015480014D013689B06FCD50369E3B9536801F806
:10155800013BC38D9BB2002BEAD10023202280F8E7
:101568003A2080F8383010BC1846704713689C063B
:10157800FCD503697BB95368C3F3080321F8023B20
:10158800E7E701207047536803F07F0301F8013B48
:10159800DFE7022070475368DBB221F8013BD8E748
:1015A800704700BFC8B138B50379012B044616D07F
:1015B800437903F0FF0263B12168022363710B686A
:1015C8000022012543F004030B6065712271104667
:1015D80038BD0271FFF7E4FFEEE7012070470220F3
:1015E80038BD00BF002103E00B4B5B58435004316A
:1015F8000A480B4B42189A42F6D30A4A02E00023E3
:1016080013600432084B9A42F9D3AFF30080FEF717
:101618001BFEFEF74DFFFEE78416000800000020C1
:101628003004002030040020B0050020FEE7000050
:10163800024B13B10248FEF7E7BD704700000000F7
:101648001D020008F8B500BFF8BC08BC9E467047EC
:0C165800F8B500BFF8BC08BC9E46704707
:1016640030313233343536373839414243444546D4
:04167400080000204A
:0816780039160008F101000819
:04168000C901000894
:10168400080000200000000000000000F402002018
:101694005C030020C40300200000000000000000E0
:1016A4000000000000000000000000000000000036
:1016B4000000000000000000000000000000000026
:1016C4000000000000000000000000000000000016
:1016D4000000000000000000000000000000000006
:1016E40000000000000000000000000000000000F6
:1016F40000000000000000000000000000000000E6
:1017040000000000000000000000000000000000D5
:1017140000000000000000000000000000000000C5
:1017240000000000000000000000000000000000B5
:1017340001000000000000000E33CDAB34126DE652
:10174400ECDE05000B0000000000000000000000BB
:101754000000000000000000000000000000000085
:101764000000000000000000000000000000000075
:101774000000000000000000000000000000000065
:101784000000000000000000000000000000000055
:04000005080015EDED
:00000001FF
