:020000040800F2
:1000000000000220DD130008251400082514000854
:10001000251400082514000825140008000000001D
:10002000000000000000000000000000251400088F
:1000300025140008000000002514000825140008FD
:1000400000000000000000000000000000000000B0
:1000500000000000000000000000000000000000A0
:100060000000000000000000000000000000000090
:100070000000000000000000000000000000000080
:100080000000000000000000000000000000000070
:100090000000000000000000000000000000000060
:1000A0000000000000000000000000000000000050
:1000B0000000000000000000000000000000000040
:1000C0000000000000000000000000000000000030
:1000D0000000000000000000000000000000000020
:1000E0000000000000000000000000000000000010
:1000F0000000000000000000000000000000000000
:1001000000000000000000000000000000000000EF
:1001100000000000000000000000000000000000DF
:1001200000000000000000000000000000000000CF
:1001300000000000000000000000000000000000BF
:1001400000000000000000000000000000000000AF
:10015000000000000000000000000000000000009F
:10016000000000000000000000000000000000008F
:10017000000000000000000000000000000000007F
:08018000000000000000000077
:100188000348044B834202D0034B03B1184770471E
:100198003004002030040020000000000548064913
:1001A8000B1AD90F01EBA301491002D0034B03B17D
:1001B8001847704730040020300400200000000079
:1001C80010B5064C237843B9FFF7DAFF044B13B197
:1001D8000448AFF300800123237010BD30040020D1
:1001E800000000003C14000808B5044B1BB104498A
:1001F8000448AFF30080BDE80840CFE700000000E6
:10020800340400203C140008002301461A4618460E
:1002180000F03EB838B50A4C0A4D641BA4100AD049
:1002280004F18043013B05EB8305013C55F8043993
:100238009847002CF9D1BDE8384001F001B900BF5A
:10024800741400087014000870B50D4E0D4D761B1F
:10025800B61006D00024013455F8043B9847A6424E
:10026800F9D1094E094D761B01F0E4F8B61006D015
:100278000024013455F8043B9847A642F9D170BDD3
:10028800681400086814000870140008681400084E
:10029800F0B4184C2568D5F8484114B365681F2D8B
:1002A80024DC38B9AB1C0135656044F82310002004
:1002B800F0BC704704EB85060127C6F8882007FACA
:1002C80005F2D4F88871022847EA0207C4F8887151
:1002D800C6F80831E6D1D4F88C311A43C4F88C2119
:1002E800E0E705F5A674C5F84841D7E74FF0FF30B9
:1002F800DEE700BF641400082DE9F041477846792D
:1003080090F8098082780379057A3F0436044FEA29
:10031800084808EB056807EB0227C57AC27806EBA0
:100328000366C3794544174490F80A8002781E444E
:100338008379044607EB026706EB032605EB0828DA
:1003480000F0D8FA00BF00BF00BF00BF87EA06056B
:1003580005EA08057D4000BF00BF00BF00BF00F0F0
:10036800D1FA290E2A0C2B0A21706270E570A3704D
:1003780022460421722000F059F90020BDE8F081DE
:10038800F8B585784679477A41780279037A2D025B
:1003980036043F0405EB014506EB0266C178C279D5
:1003A80007EB0367C37A0D441644017882791F442A
:1003B800837A044605EB016506EB022607EB032763
:1003C80000F098FA00BF00BF00BF00BF731B03FA1C
:1003D80007F7C6EB45053D4400BF00BF00BF00BF9F
:1003E80000F090FA290E2A0C2B0A21706270E57031
:1003F800A37022460421722000F018F90020F8BDED
:100408002DE9F8430446457B94F80290007B94F864
:100418000580E77B61782279637A2D0405EB006516
:100428004FEA0929207A4FEA08483D4409EB014977
:10043800A77BE17808EB02681B04E27A03EB006310
:10044800E079134405EB0727A279A57A8944217836
:10045800804409EB016908EB022803EB0525FE43FC
:1004680000F048FA00BF00BF00BF00BFF31B03FA4B
:1004780005F5C6EB4706354489EA08087D4005EAD4
:10048800080585EA090500BF00BF00BF00BF00F0EE
:1004980039FA290E2A0C2B0A21706270E570A370B4
:1004A80022460421722000F0C1F80020BDE8F8833C
:1004B80008B500F083F900F0C1F900F0FBF900F08D
:1004C80067F8094A0C21612000F098F8074A0C21C6
:1004D800622000F093F8064A1021632000F08EF89D
:1004E80000F0FEF8FCE700BF0103000889030008DC
:1004F8000904000801207047002847DDF0B40023F4
:100508004F1C0CE0D454A6F13004E5B2092D1AD8DA
:10051800D55C45EA0414D454013398421FD017F827
:10052800135011F81360A5F13004E4B2092CE9D98D
:10053800A5F14104052C15D8373DA6F13004D55452
:10054800E5B2092DE4D9A6F14104052C11D8D45CF3
:10055800373E44EA0616D65401339842DFD10020CC
:10056800F0BC7047A5F16104052C0CD8573DD55453
:10057800C9E7A6F16104052C05D8D45C573E44EAC6
:100588000616D654C8E70120F0BC70470020704713
:10059800164B1A680F2A27DC03EB021170B41448B3
:1005A800C8600125762450190C7110284FF00004FA
:1005B8008D600C74186015D003EB00107721017161
:1005C800911C0C4E856010290474C660196009D00E
:1005D80003EB011108488D60033279260C741A6008
:1005E8000E71C86070BC7047704700BF4C04002093
:1005F800FD040008950600087106000870B40A4D4D
:100608002B680F2B0DDCFF290BD805EB03160024F4
:100618003071013334742046C6E902122B6070BC75
:100628007047012070BC70474C04002070B50E461E
:10063800144600F083F97EB10A4D264423781B093D
:10064800E85C00F07BF914F8013B03F00F03E85C69
:1006580000F074F9A642F1D1BDE870400A2000F01C
:100668006DB900BF5414000800B5074B83B01B6870
:100678008DF807300DF1070201217220FFF7D6FF30
:10068800002003B05DF804FB4C040020F0B5134FC4
:10069800396811F0FF0C8DB015D00022134603EB1A
:1006A80043000CAC07EB031301322044D2B21E798D
:1006B8009D681C7C00F8306C6245134600F82F5C7E
:1006C80000F82E4CEBDB01EB4101C9B26A467220FF
:1006D800FFF7ACFF00200DB0F0BD00BF4C040020B8
:1006E8002DE9F041344FADF5427D00F013F939683A
:1006F800002928DD00233D1D01E08B421FD01C018D
:1007080001332A5D8242F8D13D192B7CDB0720D4C6
:10071800AB685B0033D042AE002507EB040808E065
:100728000D280CD0D8F8083006F8010BB5EB430FAC
:1007380025D200F0EFF80A2805F10105F0D10DF5F2
:10074800427DBDE8F081FAD000243D192B7CDB07FF
:10075800DED500238DF8083000F0DCF88DF80801AC
:1007680000F0D8F842A98DF8090102AA0120FFF784
:10077800C3FE0028E3D19DF80830AB60C9E700F05C
:10078800C9F80A2801D00D28D9D13C4402AAA56885
:1007980042A92846FFF7B0FE0028D0D1E368E9B2A5
:1007A80002A8984701AA034601217A208DF804304F
:1007B800FFF73CFFC3E700BF4C04002030B593B0FF
:1007C80003214FF4A02202234FF4800001250C24BA
:1007D80006910792C42104220C930D90072306A8C2
:1007E800CDE90E41CDE91023099500F0B9F800B123
:1007F800FEE704460F23014601A80193CDE9025400
:10080800CDE9044400F0B8FA094B00945A6B094842
:10081800094942F040025A635B6B016003F04003F0
:100828000093009B447100F0B5FD13B030BD00BFCC
:1008380000380240540500200008065030B5012158
:1008480089B002234FF4C060CDE90303CDE9051355
:10085800144D154800240722019407922B6B0B4373
:100868002B632B6B0B40019303A9019B00F04CFBFE
:100878000E4802940E4B03606B6C846043F01003C7
:100888006B646B6CC46003F0100302934FF4164260
:100898000C230299046184614260436100F05CFCAE
:1008A80009B030BD00380240000002407005002049
:1008B8000010014030B587B00C4B0D480021009165
:1008C8001A6B42F001021A631B6B039103F00103D8
:1008D8000093012202234FF4805401A9CDE901427B
:1008E800009D049300F010FB07B030BD00380240B3
:1008F80000000240024801224FF4805100F028BC59
:1009080000000240024800224FF4805100F020BC51
:100918000000024010B5084C82B041F28833012231
:100928000DF10701204600F0E1FC0028F5D19DF803
:10093800070002B010BD00BF7005002010B582B0DE
:10094800044641F2883301220DF1070103488DF86E
:10095800074000F07DFC02B010BD00BF700500200C
:10096800F0B50268D70783B033D5A5498B6803F083
:100978000C03042B00F0F4808B6803F00C03082BA5
:1009880000F0EA804568B5F5803F00F02B81B5F5A9
:10099800A02F00F084819A4E336823F480333360AB
:1009A800336823F480233360002D40F0208195497B
:1009B800954F0C68631C0B60274405E00133BB426C
:1009C8004FF0010500F0D6803468A403F6D405B1D1
:1009D8000B60950733D58A4B996811F00C0F00F01E
:1009E800D180996801F00C01082900F0C780C4681B
:1009F800864B8449002C00F01D8101221A600C6886
:100A08007F4EA3180B600434002505E00133A34290
:100A18004FF0010500F0AE8032689207F6D505B1B7
:100A28000B60774CF822216892FAA2F20369B2FAB5
:100A380082F2934021F0F8010B432360026811070A
:100A48001AD54469724B6F49002C00F0A580012229
:100A58001A600C686A4EA3180B600434002505E080
:100A68000133A3424FF0010500F08480726F9207B2
:100A7800F6D505B10B600268510748D5604B654C47
:100A88006049002501951A6C42F080521A641B6C6B
:100A980003F080530193019B236843F48073236020
:100AA8000E68771C0F6004363B4604E00133B342FE
:100AB8004FF001055ED02268D205F7D5002D00F071
:100AC800F8800B608568012D00F0CC80052D00F0C2
:100AD80045814B4E326F22F001023267326F22F0AD
:100AE80004023267002D40F0C2805A1C03F59C5363
:100AF8000A600A3305E001329A424FF0010500F01E
:100B0800CB80346FA407F6D4002D40F0C3808369EE
:100B1800FBB13B4A916801F00C01082939D0022B3E
:100B280038493D4B00F0C78000251D600C68631CE8
:100B380004F5F41410460B6004F2824404E0013317
:100B4800A3424FF0010515D002689201F7D405B110
:100B58000B60002003B0F0BD4B685E027FF512AF5A
:100B6800274B1B689D037FF534AF4368002B7FF448
:100B780030AF0EE003200B6003B0F0BD5B685C0291
:100B88003FF535AF1E4B1B6899071AD5C368012B73
:100B980017D0012003B0F0BD1C600D68184E6B1C07
:100BA8000B60043504E001339D424FF0010456D038
:100BB800726F9707F7D40268002C3FF45DAF0B60A3
:100BC8005AE70F4DF8212C6891FAA1F10369B1FA9F
:100BD80081F18B4024F0F804234311072B607FF543
:100BE8004BAF2EE706490B6843F480330B60054989
:100BF800054D0C68024F631C0B602544002612E06B
:100C0800003802405005002002E1F5050000474287
:100C1800800E474200700040600047420133AB42FB
:100C28004FF00106A6D03C68A403F7D5002E7FF448
:100C3800CFAECEE61C600D684D4E6B1C0B600435C4
:100C480004E00133AB424FF0010493D032689707B8
:100C5800F7D40268002C3FF4F2AE0B60EFE60D60AB
:100C6800032077E7424C226F42F0010222675A1CA8
:100C780003F59C533E4D0A600A33002604E0013216
:100C88009A424FF0010607D02C6FA707F7D5002E20
:100C98003FF43DAF0A603AE70A6003205AE7344B55
:100CA800196841F480211960196841F4803119608C
:100CB8009DE73B4606E700261E600D686B1C05F5A0
:100CC800F4150B6005F2824505E00133AB424FF0A5
:100CD80001063FF44FAF1468A701F6D406B10B60C4
:100CE80047F6C07696FAA6F64FF44032B6FA86F67C
:100CF80092FAA2F24FF07064B2FA82F594FAA4F470
:100D0800D0E909C2D0E9073E5208C76A0CFA06F6CC
:100D180043EA0E03013AAA40B4FA84F0334313437A
:100D280007FA00F0124C134A034301206360106075
:100D38000868431C00F5F4100B6000F2824000259F
:100D480005E0013383424FF001053FF413AF2268F9
:100D58009601F6D5002D7FF4FBAEFAE6044A146F2F
:100D680044F004041467146F44F0010414677EE728
:100D78000038024060004742604A136803F00F03DE
:100D88008B4208D2CBB21370136803F00F038B4267
:100D980001D0012070470368F0B59D0706D5584C6F
:100DA8008568A26822F0F0022A43A260DC0726D5F3
:100DB8004468012C68D0A21E514D012A2A6844D9E2
:100DC800960729D5AA684F4E22F003021443AC6057
:100DD80037687A1C3260FF434FF0000C41F2883EBE
:100DE80005E00132BC1874454FF0010C6FD8AC68AF
:100DF80014F00C0FF5D1BCF1000F00D032603F4C5D
:100E0800226802F00F028A4209D9CBB22370236804
:100E180003F00F038B4201D00120F0BD03685A078D
:100E280006D53749C4688A6822F4E05222438A60AA
:100E380013F0080307D0324A0169936823F460432A
:100E480043EAC10393600020F0BD9701E4D5AA6886
:100E58002C4E22F003022243AA603768022C07F1C5
:100E68000102326039D107F59C570A374FF0000C60
:100E780004E00132BA424FF0010C28D0AC6804F00B
:100E88000C04082CF5D1B6E71D4D2A689203C3D58A
:100E9800AA681C4E22F0030242F00102AA603768D9
:100EA8007C1C07F59C5734600A374FF0000C04E0AF
:100EB8000134BC424FF0010C0CD0AA6802F00C02BD
:100EC800042AF5D1BCF1000F99D0346097E732605D
:100ED8000320F0BD34600320F0BD07F59C570A37A6
:100EE8004FF0000C04E00132BA424FF0010CEED092
:100EF800AC6804F00C040C2CF5D17CE7003C0240F3
:100F080000380240500500202DE9F04F00230E68FC
:100F1800DFF834828E4683B0844903E00133102B16
:100F280000F09B8001229A4032EA060402EA060C8D
:100F3800F4D1DEF8045025F0100ABAF1020F00F0DF
:100F48008F80D0F800B04FEA4309032404FA09F46B
:100F580005F003072BEA040B07FA09F70AF1FF3A31
:100F680047EA0B07BAF1010F6FEA0404076040F281
:100F78009E80C768DEF808203C4002FA09F2224346
:100F8800EF00C260CAD500220192D8F8442042F48A
:100F98008042C8F84420D8F8442023F0030404F120
:100FA800804402F4804204F59C34019203F0030764
:100FB800019AD4F80890BF000F22BA4029EA020A21
:100FC8005B4A904224D002F58062904200F0838010
:100FD800584A904200F08680574A904200F0898033
:100FE800564A904200F08C80554A904200F08F801B
:100FF800544A904200F09280DFF8509148450CBF67
:101008004FF007094FF0080909FA07F74AEA070AF3
:10101800C4F808A00A686FEA0C07EC0354BF3A400A
:101028004CEA02020A604C68AA0354BF3C404CEAEE
:1010380004044C608C68EA0254BF3C404CEA040447
:101048008C60CA68AC0203F1010354BF3A404CEA11
:101058000202102BCA607FF465AF03B0BDE8F08FC1
:101068004FEAD30900EB890903F00707D9F82040B4
:10107800BF004FF00F0B0BFA07FB24EA0B0ADEF850
:101088001040BC4044EA0A04C9F82040D0F800A047
:101098004FEA4309032404FA09F405F003072AEA8E
:1010A800040A07FA09F747EA0A07E443076087686A
:1010B80007EA040ADEF80C7007FA09F747EA0A0794
:1010C8008760D0F804A0C5F300172AEA02029F40FF
:1010D800174347604DE74FF0010909FA07F74AEA55
:1010E800070A95E74FF0020909FA07F74AEA070ADB
:1010F8008EE74FF0030909FA07F74AEA070A87E774
:101108004FF0040909FA07F74AEA070A80E74FF09F
:10111800050909FA07F74AEA070A79E74FF00609C5
:1011280009FA07F74AEA070A72E700BF003C0140DC
:101138000000024000080240000C0240001002407B
:10114800001402400018024000380240001C02400F
:1011580002B9090481617047002873D070B490F80F
:101168003920034602F0FF01002A4ED01A681E6992
:10117800242183F83910D46824F40054D3E90215E3
:10118800D4601069DC6920F4405028431061D068AD
:101198005D69314320F41640294320F00C002143B7
:1011A8000143D1605169986921F440710143B4F554
:1011B800004F51612CD05C68234D2449A400B1FB39
:1011C800F4F4A5FB04104009642101FB1041090156
:1011D8003231A5FB0141000100EB51119160116909
:1011E80021F490411161516921F02A015161D168BE
:1011F8000025202441F40051D160DD6383F8394093
:1012080083F83A40284670BC704780F83810ADE73C
:101218005D680D4E0D496D00B1FBF5F5A6FB051097
:101228004409642101FB1451C9003231A6FB0101B4
:10123800C1F34210090900EB041001F4F8710144EC
:101248009160CCE7012070471F85EB51906EFB0A37
:1012580090F83930202B42D100293ED0002A3CD0CA
:1012680090F83830012B3AD030B421230024C463DD
:1012780080F83930C284C38C82849BB2012280F802
:101288003820002B2FD084680268C38C013B9BB2A6
:10129800B4F5805FC38415D013681D06FCD511F81A
:1012A800013B5360C38C9BB2002BEED113685B06E5
:1012B800FCD50023202280F8392080F8383030BC53
:1012C8001846704713681B06FCD50B880569C3F3DD
:1012D800080353602DB90231E4E70120704702206A
:1012E80070470131DEE70268E0E700BF90F83A3066
:1012F800202B46D100293CD0002A3AD090F838302B
:10130800012B3ED010B422230024C46380F83A3065
:10131800C285C38D82859BB2012280F83820A3B193
:10132800C38D8268013B9BB2B2F5805FC3850268BA
:1013380014D013689B06FCD50369E3B9536801F818
:10134800013BC38D9BB2002BEAD10023202280F8F9
:101358003A2080F8383010BC1846704713689C064D
:10136800FCD503697BB95368C3F3080321F8023B32
:10137800E7E701207047536803F07F0301F8013B5A
:10138800DFE7022070475368DBB221F8013BD8E75A
:10139800704700BFC8B138B50379012B044616D091
:1013A800437903F0FF0263B12168022363710B687C
:1013B8000022012543F004030B6065712271104679
:1013C80038BD0271FFF7E4FFEEE701207047022005
:1013D80038BD00BF002103E00B4B5B58435004317C
:1013E8000A480B4B42189A42F6D30A4A02E00023F5
:1013F80013600432084B9A42F9D3AFF30080FEF72A
:1014080023FFFFF755F8FEE77414000800000020DA
:101418003004002030040020B0050020FEE7000062
:10142800024B13B10248FEF7EFBE70470000000000
:101438001D020008F8B500BFF8BC08BC9E467047FE
:0C144800F8B500BFF8BC08BC9E46704719
:1014540030313233343536373839414243444546E6
:04146400080000205C
:0814680029140008F10100083D
:04147000C9010008A6
:10147400080000200000000000000000F40200202A
:101484005C030020C40300200000000000000000F2
:101494000000000000000000000000000000000048
:1014A4000000000000000000000000000000000038
:1014B4000000000000000000000000000000000028
:1014C4000000000000000000000000000000000018
:1014D4000000000000000000000000000000000008
:1014E40000000000000000000000000000000000F8
:1014F40000000000000000000000000000000000E8
:1015040000000000000000000000000000000000D7
:1015140000000000000000000000000000000000C7
:1015240001000000000000000E33CDAB34126DE664
:10153400ECDE05000B0000000000000000000000CD
:101544000000000000000000000000000000000097
:101554000000000000000000000000000000000087
:101564000000000000000000000000000000000077
:101574000000000000000000000000000000000067
:04000005080013DDFF
:00000001FF
