:020000040800F2
:1000000000000220912D0008D92D0008D92D0008EC
:10001000D92D0008D92D0008D92D000800000000B6
:10002000000000000000000000000000D92D0008C2
:10003000D92D000800000000D92D0008D92D000896
:1000400000000000000000000000000000000000B0
:1000500000000000000000000000000000000000A0
:100060000000000000000000000000000000000090
:100070000000000000000000000000000000000080
:100080000000000000000000000000000000000070
:100090000000000000000000000000000000000060
:1000A0000000000000000000000000000000000050
:1000B0000000000000000000000000000000000040
:1000C0000000000000000000000000000000000030
:1000D0000000000000000000000000000000000020
:1000E0000000000000000000000000000000000010
:1000F0000000000000000000000000000000000000
:1001000000000000000000000000000000000000EF
:1001100000000000000000000000000000000000DF
:1001200000000000000000000000000000000000CF
:1001300000000000000000000000000000000000BF
:1001400000000000000000000000000000000000AF
:10015000000000000000000000000000000000009F
:10016000000000000000000000000000000000008F
:10017000000000000000000000000000000000007F
:08018000000000000000000077
:100188000348044B834202D0034B03B1184770471E
:1001980040040020400400200000000005480649F3
:1001A8000B1AD90F01EBA301491002D0034B03B17D
:1001B8001847704740040020400400200000000059
:1001C80010B5064C237843B9FFF7DAFF044B13B197
:1001D8000448AFF300800123237010BD40040020C1
:1001E80000000000F02D000808B5044B1BB10449BD
:1001F8000448AFF30080BDE80840CFE700000000E6
:1002080044040020F02D0008002301461A46184631
:1002180000F03EB838B50A4C0A4D641BA4100AD049
:1002280004F18043013B05EB8305013C55F8043993
:100238009847002CF9D1BDE8384002F0DBBD00BF7B
:10024800182E0008142E000870B50D4E0D4D761BA3
:10025800B61006D00024013455F8043B9847A6424E
:10026800F9D1094E094D761B02F0BEFDB61006D035
:100278000024013455F8043B9847A642F9D170BDD3
:100288000C2E00080C2E0008142E00080C2E000856
:10029800F0B4184C2568D5F8484114B365681F2D8B
:1002A80024DC38B9AB1C0135656044F82310002004
:1002B800F0BC704704EB85060127C6F8882007FACA
:1002C80005F2D4F88871022847EA0207C4F8887151
:1002D800C6F80831E6D1D4F88C311A43C4F88C2119
:1002E800E0E705F5A674C5F84841D7E74FF0FF30B9
:1002F800DEE700BF082E00082DE9F00F86B000AF3A
:10030800C7E90401FA60D7E904014FF000024FF091
:10031800000303000022D7E9040182EA000A83EA05
:10032800010BFB685B111A464FEAE273524263EB1A
:1003380043030AEA02080BEA0309D7E9042382EA1D
:100348000801396083EA09037B60D7E90023C7E91C
:100358000423FB6803F01F01D7E90423A1F1200659
:10036800C1F1200003FA01F502FA06F6354322FA34
:1003780000F0054302FA01F422462B4610461946BE
:100388001837BD46BDE8F00F70472DE9F00F86B06D
:1003980000AFC7E90401FA60D7E904014FF0000291
:1003A8004FF000030A000023D7E9040182EA000A9B
:1003B80083EA010BFB685B111A464FEAE27352426B
:1003C80063EB43030AEA02080BEA0309D7E90423AB
:1003D80082EA0801396083EA09037B60D7E90023D0
:1003E800C7E90423FB6803F01F01D7E90423C1F11F
:1003F8002006A1F1200022FA01F403FA06F634439C
:1004080023FA00F0044323FA01F522462B4610464E
:1004180019461837BD46BDE8F00F70472DE9B00FF3
:1004280091B000AF78623962C7E906233B6A03F2EC
:1004380034433B623B6ADB0FFB63FB6B1A464FF0AE
:10044800000312F1FF3443F1FF35D7E9062302EA2E
:10045800040139612B407B61D7E90434C7E90634CC
:10046800D7E906014FF000024FF000038A0D002380
:100478001346FB63FB6B5B423A6A13403B627B6A41
:100488001A464FEAE2734FF000004FF00001D1071F
:100498000020D7E906454FF000024FF00003A208FC
:1004A80042EA8572AB0840EA020A41EA030B3B6A5A
:1004B80018464FF000014FF000024FF0000303050B
:1004C80000221AEB0201B9604BEB0303FB60D7E98A
:1004D8000234C7E90C34BB6903F00703FB62C82286
:1004E800FB6A22FA03F31A464FF000034FF00100AB
:1004F8004FF0000102EA000803EA0109D7E90C23DA
:1005080012EB0801396043EB09037B60D7E900343B
:10051800C7E90C34D7E90C23104619464437BD46C1
:10052800BDE8B00F70472DE9B04FC2B000AFC7E9C2
:100538003801C7F8DC20D7E938234FF000004FF026
:100548000001D80F00210346C7F80431D7F8043159
:100558001A464FEAE273504263EB4301D7E9382366
:1005680082EA000483EA0105C7E93845D7F804316F
:1005780018464FEAE071D7E9382312EB000843EB3D
:100588000109C7E93889D7E93823C7E93E23D7F8ED
:10059800DC300933C7F8F430D7F8F4303F3BC7F8FC
:1005A800F430D7E93E234FF000004FF00001180067
:1005B80000210346C7F8F030D7F8F0305A42D7F890
:1005C800F0301343DB0FC7F8F030D7E93E234FF084
:1005D80000004FF0000111000020D7E93E2380EA17
:1005E8000204C7F8D0404B40C7F8D430D7F8F030F1
:1005F8001A464FF0000312F1FF3A43F1FF3BD7E9E7
:1006080034120B4603EA0A03C7F8C830134603EA54
:100618000B03C7F8CC30D7E93E23D7E9324521464A
:1006280051403964294659407964D7E91034C7E9FB
:100638003E34D7F8F0305B011A46D7F8F43013444B
:10064800C7F8F430D7E93E234FF000004FF000011F
:10065800180C00210346C7F8F030D7F8F0305A429A
:10066800D7F8F0301343DB0FC7F8F030D7E93E2353
:100678004FF000004FF00001190441EA1241100444
:10068800D7E93E2380EA0204C7F8C0404B40C7F8C8
:10069800C430D7F8F0301A464FF0000312F1FF319A
:1006A800C7F8B81043F1FF33C7F8BC30D7E9304575
:1006B8002346D7E92E0102461340C7F8B0302B462F
:1006C8000A461340C7F8B430D7E93E23D7E92C458A
:1006D80021465140B96329465940F963D7E90E3498
:1006E800C7E93E34D7F8F0301B011A46D7F8F43082
:1006F8001344C7F8F430D7E93E234FF000004FF019
:100708000001180E00210346C7F8F030D7F8F03082
:100718005A42D7F8F0301343DB0FC7F8F030D7E967
:100728003E234FF000004FF00001190241EA126128
:100738001002D7E93E2380EA0204C7F8A8404B40DC
:10074800C7F8AC30D7F8F0301A464FF0000312F172
:10075800FF31C7F8A01043F1FF33C7F8A430D7E939
:100768002A452346D7E9280102461340C7F898309E
:100778002B460A461340C7F89C30D7E93E23D7E9F1
:100788002645214651403963294659407963D7E9BE
:100798000C34C7E93E34D7F8F030DB001A46D7F8F6
:1007A800F4301344C7F8F430D7E93E234FF0000083
:1007B8004FF00001180F00210346C7F8F030D7F8B2
:1007C800F0305A42D7F8F0301343DB0FC7F8F03057
:1007D800D7E93E234FF000004FF00001190141EA2C
:1007E80012711001D7E93E2380EA0204C7F890404D
:1007F8004B40C7F89430D7F8F0301A464FF0000352
:1008080012F1FF31C7F8881043F1FF33C7F88C3075
:10081800D7E924452346D7E9220102461340C7F801
:1008280080302B460A461340C7F88430D7E93E2368
:10083800D7E9204521465140B96229465940F96215
:10084800D7E90A34C7E93E34D7F8F0309B001A4696
:10085800D7F8F4301344C7F8F430D7E93E234FF003
:1008680000004FF00001980F00210346C7F8F03050
:10087800D7F8F0305A42D7F8F0301343DB0FC7F8F7
:10088800F030D7E93E234FF000004FF00001990007
:1008980041EA92719000D7E93E2380EA0204BC67DE
:1008A8004B40FB67D7F8F0301A464FF0000312F1BF
:1008B800FF31396743F1FF337B67D7E91E4523468C
:1008C800D7E91C0102461340BB662B460A46134073
:1008D800FB66D7E93E23D7E91A45214651403962DC
:1008E800294659407962D7E90834C7E93E34D7F830
:1008F800F0305B001A46D7F8F4301344C7F8F430E8
:10090800D7E93E234FF000004FF00001D80F002137
:100918000346C7F8F030D7E93E239118B9615B4127
:10092800FB61D7E90601D7E93E2380EA02043C6669
:100938004B407B66D7F8F0301A464FF0000312F1AF
:10094800FF31B96543F1FF33FB65D7E91845234605
:10095800D7E91601024613403B652B460A46134069
:100968007B65D7E93E23D7E91445214651403961D3
:10097800294659407961D7E90434C7E93E34D7F8A4
:10098800F030D7F8F4201344C7F8F430D7F8F8302B
:10099800C3F3080303F2FF131A464FF00003D7E925
:1009A8003E0140EA0204BC600B43FB60D7E9023415
:1009B800C7E93E34D7E93E014FF000024FF000038B
:1009C800420A42EAC1524B0AC7E93E23D7E9382313
:1009D800504263EB4301D7E9382340EA0204BC6480
:1009E8000B43FB64D7E912014FF000024FF00003FC
:1009F800CA0F00231346C7F8EC30D7F8EC301A4674
:100A08004FF00003524263EB4303D7E93E0100EA8B
:100A180002043C600B407B60D7E90034C7E93E34F0
:100A2800D7F8EC305B42D7F8F4201340C7F8F4301D
:100A3800D7E93E23D7F8F410D7F80401FFF7EEFC06
:100A480002460B461046194607F58477BD46BDE8B1
:100A5800B08F80B582B000AFC7E900010022D7E9A6
:100A68000001FFF760FD02460B461046194608379D
:100A7800BD4680BD2DE9B04FEAB000AFC7E95801C7
:100A8800C7E956234FF0FF326FF00043C7E96823E8
:100A9800D7E95801D7E9682300EA020801EA0309FF
:100AA800D7E95601D7E9682300EA020401EA0305F9
:100AB800B8EB040A69EB050BC7E966ABD7E966230F
:100AC8004FF000004FF00001D80F00210546D7E98C
:100AD8006623524263EB43034FF000004FF00001DE
:100AE800D80F00210346C3F10104D7E958234FF07A
:100AF80000004FF00001D80F0021034623402B438C
:100B0800C7F89431D7E95801D7E9562380EA020497
:100B1800C7F850414B40C7F85431D7F894311A46BA
:100B28004FF00003524263EB4303D7E95445214693
:100B38001140B96729461940F967D7E91E34C7E952
:100B48006834D7E95801D7E9682380EA02043C678A
:100B58004B407B67D7E91C34C7E95834D7E95601BD
:100B6800D7E9682380EA0204BC664B40FB66D7E9F4
:100B78001A34C7E95634D7E958234FF000004FF02C
:100B88000001180D00210346C7F89031D7F89031BD
:100B9800DB12C7F88C31D7F89031C3F30A03C7F8D2
:100BA8009031D7F8903103F2FF73DB121A464FF0F9
:100BB80000034FF000004FF0000111050020C7E9C5
:100BC8006801D7E958014FF0FF32C74B00EA020429
:100BD800C7F848410B40C7F84C31D7E96823D7E933
:100BE800524521461143C7F8401129461943C7F811
:100BF80044114FF000024FF00003D7E95045294651
:100C0800CB00214643EA51732146CA00C7E9602355
:100C1800D7F89031A3F23643C7F89031D7E9562375
:100C28004FF000004FF00001180D00210346C7F8EF
:100C38007C31D7F87C31DB12C7F87831D7F87C31B2
:100C4800C3F30A03C7F87C31D7F87C3103F2FF738A
:100C5800DB121A464FF000034FF000004FF000017E
:100C680011050020C7E96801D7E956014FF0FF32A6
:100C78009D4B00EA0204C7F838410B40C7F83C31E5
:100C8800D7E96823D7E94E4521461143C7F8301103
:100C980029461943C7F834114FF000024FF00003FA
:100CA800D7E94C452946CB00214643EA51732146F2
:100CB800CA00C7E95C23D7F87C31A3F23643C7F8EA
:100CC8007C31D7F89021D7F87C31D31AC7F86C312A
:100CD800D7F86C313C3BDB0F1A464FF0000350420B
:100CE80063EB4301D7E95C2302EA00043C660B404E
:100CF8007B66D7E91834C7E95C34D7F86C3103F060
:100D08003F03C7F86C31D7F86C214FF001004FF062
:100D18000001FFF7F1FA02460B4612F1FF31B965FF
:100D280043F1FF33FB65D7E91634C7E96834D7E9DF
:100D38005C01D7E9682300EA0204C7F828410B40A0
:100D4800C7F82C31D7E96823D7E94A4521468918DD
:100D5800C7F82011294643EB0101C7F82411D7E948
:100D68005C23D7E94845214611433965294619438B
:100D78007965D7E91434C7E95C34D7F86C21D7E929
:100D88005C01FFF702FBC7E95C01D7E95C23911816
:100D9800B9645B41FB64D7E91201D7F88C21D7F815
:100DA800783153401A464FEAE273524263EB4303E9
:100DB80000EA0204C7F818410B40C7F81C31D7E90C
:100DC8005C23D7E946452146511AC7F81011294630
:100DD80063EB0103C7F81431D7E96023D7E9444529
:100DE800214651183964294643EB01017964D7E952
:100DF8001034C7E96034D7F890313F3BC7F89031D9
:100E0800D7E960234FF000004FF0000118000021DF
:100E18000346C7F86831D7F868315A42D7F86831BD
:100E28001343DB0FC7F86831D7E960234FF00000A0
:100E38004FF0000111000020D7E9602380EA020486
:100E4800C7F808414B40C7F80C31D7F868311A4643
:100E58004FF0000312F1FF31C7F8001143F1FF33DF
:100E6800C7F80431D7E942452346D7E9400102468D
:100E78001340C7F8F8302B460A461340C7F8FC3031
:100E8800D7E96023D7E93E4521465140B963294651
:100E98005940F963D7E90E34C7E96034D7F86831A7
:100EA8005B011A46D7F890311344C7F89031D7E957
:100EB80060234FF000004FF00001180C002103469A
:100EC800C7F86831D7F868315A42D7F86831134300
:100ED800DB0FC7F86831D7E960234FF000004FF007
:100EE8000001190402E000BFFFFF0F0041EA1241B0
:100EF8001004D7E9602380EA0204C7F8F0404B40A9
:100F0800C7F8F430D7F868311A464FF0000312F1E9
:100F1800FF31C7F8E81043F1FF33C7F8EC30D7E9E1
:100F28003C452346D7E93A0102461340C7F8E0306A
:100F38002B460A461340C7F8E430D7E96023D7E9BF
:100F48003845214651403963294659407963D7E9E4
:100F58000C34C7E96034D7F868311B011A46D7F852
:100F680090311344C7F89031D7E960234FF000005F
:100F78004FF00001180E00210346C7F86831D7F872
:100F880068315A42D7F868311343DB0FC7F8683124
:100F9800D7E960234FF000004FF00001190241EA41
:100FA80012611002D7E9602380EA0204C7F8D8402A
:100FB8004B40C7F8DC30D7F868311A464FF00003C9
:100FC80012F1FF31C7F8D01043F1FF33C7F8D4301E
:100FD800D7E936452346D7E9340102461340C7F816
:100FE800C8302B460A461340C7F8CC30D7E96023EF
:100FF800D7E9324521465140B96229465940F9623C
:10100800D7E90A34C7E96034D7F86831DB001A46F3
:10101800D7F890311344C7F89031D7E960234FF0DF
:1010280000004FF00001180F00210346C7F868318F
:10103800D7F868315A42D7F868311343DB0FC7F83D
:101048006831D7E960234FF000004FF00001190123
:1010580041EA12711001D7E9602380EA0204C7F857
:10106800C0404B40C7F8C430D7F868311A464FF033
:10107800000312F1FF31C7F8B81043F1FF33C7F886
:10108800BC30D7E930452346D7E92E010246134044
:10109800C7F8B0302B460A461340C7F8B430D7E932
:1010A8006023D7E92C4521465140396229465940E9
:1010B8007962D7E90834C7E96034D7F868319B000A
:1010C8001A46D7F890311344C7F89031D7E960230E
:1010D8004FF000004FF00001980F00210346C7F8B9
:1010E8006831D7F868315A42D7F868311343DB0FB3
:1010F800C7F86831D7E960234FF000004FF00001CE
:10110800990041EA92719000D7E9602380EA0204CD
:10111800C7F8A8404B40C7F8AC30D7F868311A4632
:101128004FF0000312F1FF31C7F8A01043F1FF336D
:10113800C7F8A430D7E92A452346D7E9280102464B
:101148001340C7F898302B460A461340C7F89C301E
:10115800D7E96023D7E9264521465140B961294698
:101168005940F961D7E90634C7E96034D7F86831DE
:101178005B001A46D7F890311344C7F89031D7E985
:1011880060234FF000004FF00001D80F0021034604
:10119800C7F86831D7E96023911839615B417B61F1
:1011A800D7E90401D7E9602380EA0204C7F8904030
:1011B8004B40C7F89430D7F868311A464FF000030F
:1011C80012F1FF31C7F8881043F1FF33C7F88C30AC
:1011D800D7E924452346D7E9220102461340C7F838
:1011E80080302B460A461340C7F88430D7E960237D
:1011F800D7E9204521465140B96029465940F96050
:10120800D7E90234C7E96034D7F86831D7F89021B4
:101218001344C7F89031D7F88031C3F3080303F2B9
:10122800FF131A464FF00003D7E9600140EA0204B1
:101238003C600B437B60D7E90034C7E96034D7E9E9
:1012480060014FF000024FF00003420A42EAC15227
:101258004B0AC7E96023D7F890310933C7F89031B2
:10126800D7E96023D7F89011D7F88C01FFF7D6F8A3
:1012780002460B461046194607F5D477BD46BDE829
:10128800B08F00BF80B58CB000AF78600B46FB70A4
:1012980007F1100300221A605A609A60DA601A6136
:1012A8005A610023FB6223E00023BB6210E0FB6A63
:1012B800DA00BB6A13441A467B681344197807F1AD
:1012C8000802BB6A13440A461A70BB6A0133BB6240
:1012D800BB6A072BEBDDD7E90223F96AC90007F1DE
:1012E800300001442039C1E90023FB6A0133FB6265
:1012F800FB6A012BD8DD00F0F3FBD7E90401D7E93D
:101308000623FFF7B7FB02460B46C7E9082300F0A0
:10131800F3FBD7E90823C7E902230023BB620BE0EC
:10132800BB6A7A68134407F10801BA6A0A4412785A
:101338001A70BB6A0133BB62BB6A072BF0DD7A689F
:101348000821722000F0C8FA002318463037BD463D
:1013580080BD80B58AB000AF78600B46FB70002373
:101368007B620CE07B6A7A681344197807F10802FB
:101378007B6A13440A461A707B6A01337B627B6A74
:10138800072BEFDDD7E90223C7E9062300F0A8FB06
:10139800D7E90601FFF75DFBC7E9040100F0ACFBE4
:1013A800D7E90423C7E9022300237B620BE07B6AA9
:1013B8007A68134407F108017A6A0A4412781A70A5
:1013C8007B6A01337B627B6A072BF0DD7A68082130
:1013D800722000F081FA002318462837BD4680BDE8
:1013E80080B500AF00F0AEFA00F0FCFA00F050FB58
:1013F80000F030F9064A1021612000F045F9054A4D
:101408000821622000F040F900F094F9FCE700BFE1
:101418008D1200085B13000880B483B000AF7860B9
:101428000B46FB70012318460C37BD4680BC70473D
:1014380080B584B000AF78600B46FB70074B1B6823
:10144800DBB2FB7307F10F031A460121722000F08B
:1014580043FA002318461037BD4680BD5C040020BF
:1014680080B590B000AF78600B46FB70002387F81A
:101478003F303AE097F83F3097F83F2027491B0163
:101488000B44197813465B00134407F140021344D8
:10149800343B0A461A7097F83F30204A1B01134420
:1014A80004331B6897F83F20D9B213465B001344F6
:1014B80007F140021344333B0A461A7097F83F304D
:1014C80097F83F2015491B010B440C331978134634
:1014D8005B00134407F140021344323B0A461A707A
:1014E80097F83F30013387F83F3097F83F200C4B8F
:1014F8001B68DBB29A42BDDB094B1B68DBB21A469C
:1015080052001344DBB207F10C021946722000F0B6
:10151800E3F9002318464037BD4680BD600400202B
:101528005C04002080B487B000AFF860B9607A60CE
:1015380000237B6183E07B695B001A46BB68134428
:101548001B78FB747B695B000133BA6813441B7812
:10155800BB74BB7C2F2B0AD9BB7C392B07D87B6982
:101568007A681344BA7C303AD2B21A701DE0BB7C58
:10157800402B0AD9BB7C462B07D87B697A68134471
:10158800BA7C373AD2B21A700FE0BB7C602B0AD90A
:10159800BB7C662B07D87B697A681344BA7C573AB8
:1015A800D2B21A7001E001234FE0FB7C2F2B13D934
:1015B800FB7C392B10D87B697A6813441B785AB2A4
:1015C800FB7C303B1B015BB2134359B27B697A68E1
:1015D8001344CAB21A702FE0FB7C402B13D9FB7C52
:1015E800462B10D87B697A6813441B785AB2FB7C67
:1015F800373B1B015BB2134359B27B697A681344CA
:10160800CAB21A7018E0FB7C602B13D9FB7C662BDE
:1016180010D87B697A6813441B785AB2FB7C573B15
:101628001B015BB2134359B27B697A681344CAB28F
:101638001A7001E0012308E07B6901337B617A6954
:10164800FB689A42FFF677AF002318461C37BD4661
:1016580080BC704780B500AF084A0121762000F0B1
:1016680013F8074A0121772000F00EF8054A0121F6
:10167800792000F009F800BF80BD00BF21140008E0
:10168800691400083914000880B584B000AF034617
:10169800B9607A60FB73F87B00237A68B96800F058
:1016A80005F8034618461037BD4680BD80B485B09E
:1016B80000AFB9607A601A460346FB731346BB73E2
:1016C8001A4B1B680F2B01DD012329E0BB68FF2B98
:1016D80001D9012324E0154B1B68154A1B0113444B
:1016E800FA7B1A70114B1B68114A1B01134404330F
:1016F800BA681A600D4B1B680D4A1B011344083366
:101708007A681A60094B1B68094A1B0113440C3399
:10171800BA7B1A70054B1B680133044A1360002317
:1017280018461437BD4680BC704700BF5C040020D3
:101738006004002080B5ADF5467D00AF00F0E8F903
:10174800034687F80F330023C7F814330EE0604AC6
:10175800D7F814331B0113441B7897F80F239A42C8
:101768000BD0D7F814330133C7F81433594B1B681F
:10177800D7F814239A42EADB00E000BF554B1B68F8
:10178800D7F814239A4200F09680514AD7F81433B8
:101798001B0113440C331B7803F00103002B21D0E9
:1017A800FB1D00221A7000F0B3F903461A463B1DD0
:1017B8001A7000F0ADF903461A463B1D5A70FA1D1F
:1017C8003B1D19460120FFF7ADFE0346002B74D1DF
:1017D800FB1D1B7819463E4AD7F814331B011344E6
:1017E800043319600023C7F8103319E000F090F9AA
:1017F800034687F80F3397F80F330A2B5FD097F813
:101808000F330D2B5BD007F58672D7F810331344CE
:1018180097F80F231A70D7F810330133C7F810332D
:101828002B4AD7F814331B01134404331B685A009E
:10183800D7F810339A42D9D800F06AF9034687F8E6
:101848000F3397F80F330A2B03D097F80F330D2B6C
:1018580037D11F4AD7F814331B01134404331B68CC
:10186800184607F10C0207F586731946FFF75AFE6A
:101878000346002B27D1164AD7F814331B0113440B
:1018880008331B681249D7F8142312010A4404329A
:101898001268D1B207F10C021046984703461A465F
:1018A80007F108031A7007F108031A4601217A2084
:1018B80000F012F808E000BF06E000BF04E000BF37
:1018C80002E000BF00E000BF07F54677BD4680BDD7
:1018D800600400205C04002080B584B000AF03469B
:1018E8003A60FB710B46BB71FB79184600F026F98C
:1018F8000023FB6019E0FB683A6813441B781B0956
:10190800DBB21A460E4B9B5C184600F017F9FB68D1
:101918003A6813441B7803F00F03094AD35C18464E
:1019280000F00CF9FB680133FB60BB79FA689A4256
:10193800E1DB0A2000F002F900BF1037BD4680BD88
:101948000000002080B592B000AF0323BB614FF4C4
:10195800A023FB6101237B6202233B634FF48003D6
:101968007B630C23BB63C423FB6304233B6407230F
:101978007B6407F11803184600F004F90346002BAE
:1019880000D0FEE70F237B600123BB600023FB60D0
:1019980000233B6100237B613B1D0021184600F0BA
:1019A80055FB00233B600C4B5B6B0B4A43F0400339
:1019B8005363094B5B6B03F040033B603B68074B89
:1019C800074A1A60054B00225A71044801F0A0F931
:1019D80000BF4837BD4680BD00380240640500207E
:1019E8000008065080B588B000AF4FF4C063FB60B4
:1019F80002233B6101237B610223BB610723FB6157
:101A08000023BB601E4B1B6B1D4A43F0010313638D
:101A18001B4B1B6B03F00103BB60BB6807F10C0396
:101A28001946184800F01AFC174B184A1A60164B4A
:101A38004FF416425A60144B00229A60124B00224F
:101A4800DA60114B00221A610F4B00229A610E4B8B
:101A58000C225A6100237B60094B5B6C084A43F0F7
:101A680010035364064B5B6C03F010037B607B68C8
:101A7800054800F0C1FF00BF2037BD4680BD00BF4C
:101A8800003802400000024080050020001001409C
:101A980080B586B000AF00233B600F4B1B6B0E4A2E
:101AA80043F0010313630C4B1B6B03F001033B6012
:101AB8003B684FF480537B600123BB600023FB60CD
:101AC80002233B613B1D1946044800F0C7FB00BFD9
:101AD8001837BD4680BD00BF0038024000000240F4
:101AE80080B500AF01224FF48051024800F050FD4C
:101AF80000BF80BD0000024080B500AF00224FF457
:101B08008051024800F044FD00BF80BD0000024043
:101B180080B582B000AF00BFF91D41F288330122C1
:101B2800054801F05AF80346002BF5D1FB79184611
:101B38000837BD4680BD00BF8005002080B584B051
:101B480000AF0346FB71FB79FB7307F10F0141F20C
:101B580088330122034800F0B6FF00BF1037BD46A6
:101B680080BD00BF8005002080B400AF044B1B6817
:101B78005A1C03490A601846BD4680BC704700BF1E
:101B88006005002080B58EB000AF786000237B63CD
:101B98007B681B6803F00103002B77D0A54B9B687B
:101BA80003F00C03042B0CD0A24B9B6803F00C032E
:101BB800082B12D19F4B5B6803F48003B3F5800FA9
:101BC8000BD19C4B1B6803F40033002B5DD07B6862
:101BD8005B68002B59D101232CE27B685B68B3F565
:101BE800803F06D1934B1B68924A43F480331360BD
:101BF8001DE07B685B68B3F5A02F0CD18D4B1B688B
:101C08008C4A43F4802313608A4B1B68894A43F447
:101C1800803313600BE0874B1B68864A23F48033BC
:101C28001360844B1B68834A23F4802313607B680A
:101C38005B68002B14D0FFF797FF786309E0FFF784
:101C480093FF02467B6BD31A7B4A934201D9032345
:101C5800F0E1784B1B6803F40033002BEFD015E05C
:101C6800FFF782FF786309E0FFF77EFF02467B6B90
:101C7800D31A714A934201D90323DBE16D4B1B68E8
:101C880003F40033002BEFD100E000BF7B681B6832
:101C980003F00203002B77D0664B9B6803F00C031C
:101CA800002B0BD0634B9B6803F00C03082B26D149
:101CB800604B5B6803F48003002B20D15D4B1B68ED
:101CC80003F00203002B05D07B68DB68012B01D0F1
:101CD8000123AFE1574B1B6823F0F8027B681969B1
:101CE800F8233B633B6B93FAA3F3FB62FB6AB3FAFB
:101CF80083F301FA03F34F4913430B6044E07B6815
:101D0800DB68002B2AD04D4B01221A60FFF72CFF0D
:101D1800786308E0FFF728FF02467B6BD31A022B93
:101D280001D9032386E1434B1B6803F00203002B10
:101D3800F0D0404B1B6823F0F8027B681969F82340
:101D4800BB62BB6A93FAA3F37B627B6AB3FA83F341
:101D580001FA03F3374913430B6015E0374B0022B0
:101D68001A60FFF701FF786308E0FFF7FDFE0246FF
:101D78007B6BD31A022B01D903235BE12D4B1B6824
:101D880003F00203002BF0D17B681B6803F0080303
:101D9800002B30D07B685B69002B16D0284B0122C2
:101DA8001A60FFF7E1FE786308E0FFF7DDFE024600
:101DB8007B6BD31A022B01D903233BE11D4B5B6FCD
:101DC80003F00203002BF0D015E01D4B00221A602F
:101DD800FFF7CAFE786308E0FFF7C6FE02467B6B92
:101DE800D31A022B01D9032324E1124B5B6F03F0B2
:101DF8000203002BF0D17B681B6803F00403002B5F
:101E080000F088800023BB600A4B1B6C094A43F032
:101E180080531364074B1B6C03F08053BB60BB6893
:101E2800084B1B68074A43F480731360FFF79CFE56
:101E3800786312E00038024000E1F50500004742EF
:101E4800800E474200700040FFF78EFE02467B6B13
:101E5800D31A022B01D90323ECE0784B1B6803F457
:101E68008073002BF0D07B689B68012B06D1744BE4
:101E78001B6F734A43F0010313671CE07B689B6880
:101E8800052B0CD16E4B1B6F6D4A43F0040313678F
:101E98006B4B1B6F6A4A43F0010313670BE0684BF7
:101EA8001B6F674A23F001031367654B1B6F644A76
:101EB80023F0040313677B689B68002B15D0FFF79A
:101EC80053FE78630AE0FFF74FFE02467B6BD31A96
:101ED80041F28832934201D90323ABE0584B1B6F80
:101EE80003F00203002BEED014E0FFF73DFE786309
:101EF8000AE0FFF739FE02467B6BD31A41F28832BB
:101F0800934201D9032395E04D4B1B6F03F0020365
:101F1800002BEED17B689B69002B00F08A80484B30
:101F28009B6803F00C03082B00F081807B689B6999
:101F3800022B64D1434B00221A60FFF715FE786329
:101F480009E0FFF711FE02467B6BD31A3E4A934223
:101F580001D903236EE03A4B1B6803F00073002B92
:101F6800EFD17B68DA697B681B6A1A437B68596A18
:101F780047F6C0733B613B6993FAA3F3FB60FB68C8
:101F8800B3FA83F301FA03F31A437B689B6A5B088D
:101F9800591E4FF44033BB61BB6993FAA3F37B61CD
:101FA8007B69B3FA83F301FA03F31A437B68D96AAE
:101FB8004FF070633B623B6A93FAA3F3FB61FB69E2
:101FC800B3FA83F301FA03F31D4913434B601D4B26
:101FD80001221A60FFF7C8FD786309E0FFF7C4FD26
:101FE80002467B6BD31A184A934201D9032321E096
:101FF800134B1B6803F00073002BEFD019E0114B53
:1020080000221A60FFF7B0FD786309E0FFF7ACFD26
:1020180002467B6BD31A0C4A934201D9032309E089
:10202800074B1B6803F00073002BEFD101E001237D
:1020380000E0002318463837BD4680BD00700040D8
:10204800003802406000474280841E0080B584B09A
:1020580000AF786039600023FB60744B1B6803F0A5
:102068000F033A689A420CD9704B3A68D2B21A7088
:102078006E4B1B6803F00F033A689A4201D00123A4
:10208800CFE07B681B6803F00203002B08D0684B85
:102098009B6823F0F0027B689B68654913438B605B
:1020A8007B681B6803F00103002B00F086807B68C7
:1020B8005B68012B07D15E4B1B6803F40033002BD0
:1020C80019D10123ADE07B685B68022B03D07B68E4
:1020D8005B68032B07D1564B1B6803F00073002B7A
:1020E80009D101239DE0524B1B6803F00203002B2A
:1020F80001D1012395E04E4B9B6823F003027B68D6
:102108005B684B4913438B60FFF72EFDF8607B68D3
:102118005B68012B12D10AE0FFF726FD0246FB6837
:10212800D31A41F28832934201D9032379E0404B14
:102138009B6803F00C03042BEED13EE07B685B68E0
:10214800022B12D10AE0FFF70FFD0246FB68D31AF3
:1021580041F28832934201D9032362E0344B9B68F1
:1021680003F00C03082BEED127E07B685B68032B98
:102178001DD10AE0FFF7F8FC0246FB68D31A41F2CA
:102188008832934201D903234BE0294B9B6803F023
:102198000C030C2BEED110E0FFF7E6FC0246FB68BF
:1021A800D31A41F28832934201D9032339E0204BF4
:1021B8009B6803F00C03002BEED11C4B1B6803F04B
:1021C8000F033A689A420CD2184B3A68D2B21A7086
:1021D800164B1B6803F00F033A689A4201D001239B
:1021E8001FE07B681B6803F00403002B08D0104B2A
:1021F8009B6823F4E0527B68DB680D4913438B60CE
:102208007B681B6803F00803002B09D0084B9B6808
:1022180023F460427B681B69DB00054913438B602C
:10222800002318461037BD4680BD00BF003C024061
:102238000038024080B400AF024B1846BD4680BC4F
:10224800704700BF1075700080B400AF024B18468D
:10225800BD4680BC704700BF1075700080B489B05F
:1022680000AF7860396000237B6100233B61002365
:10227800BB610023FB616BE10122FB6902FA03F3F6
:102288007B613B681B687A6913403B613A697B69EB
:102298009A4240F05A813B685B68022B03D03B6846
:1022A8005B68122B23D1FB69DA087B68083253F884
:1022B8002230BB61FB6903F007039B000F2202FA7F
:1022C80003F3DB43BA691340BB613B681A69FB69D6
:1022D80003F007039B0002FA03F3BA691343BB61D7
:1022E800FB69DA087B680832B96943F822107B6811
:1022F8001B68BB61FB695B00032202FA03F3DB4343
:10230800BA691340BB613B685B6803F00302FB6971
:102318005B0002FA03F3BA691343BB617B68BA69CD
:102328001A603B685B68012B0BD03B685B68022B2B
:1023380007D03B685B68112B03D03B685B68122BA6
:1023480030D17B689B68BB61FB695B00032202FAA2
:1023580003F3DB43BA691340BB613B68DA68FB6986
:102368005B0002FA03F3BA691343BB617B68BA697D
:102378009A607B685B68BB610122FB6902FA03F320
:10238800DB43BA691340BB613B685B681B0903F018
:102398000102FB6902FA03F3BA691343BB617B6864
:1023A800BA695A607B68DB68BB61FB695B00032222
:1023B80002FA03F3DB43BA691340BB613B689A68CE
:1023C800FB695B0002FA03F3BA691343BB617B68DC
:1023D800BA69DA603B685B6803F08053002B00F051
:1023E800B4800023FB605F4B5B6C5E4A43F4804320
:1023F80053645C4B5B6C03F48043FB60FB685A4A94
:10240800FB699B08023352F82330BB61FB6903F078
:1024180003039B000F2202FA03F3DB43BA6913405C
:10242800BB617B68514A93422BD07B68504A9342E8
:1024380025D07B684F4A93421FD07B684E4A93420F
:1024480019D07B684D4A934213D07B684C4A93421B
:102458000DD07B684B4A934207D07B684A4A934227
:1024680001D107230EE008230CE006230AE0052328
:1024780008E0042306E0032304E0022302E001232A
:1024880000E00023FA6902F0030292009340BA695F
:102498001343BB613449FB699B080233BA6941F8AD
:1024A80023203A4B1B68BB613B69DB43BA69134085
:1024B800BB613B685B6803F48033002B03D0BA69C7
:1024C8003B691343BB61314ABB6913602F4B5B689F
:1024D800BB613B69DB43BA691340BB613B685B681E
:1024E80003F40033002B03D0BA693B691343BB6183
:1024F800264ABB695360254B9B68BB613B69DB433C
:10250800BA691340BB613B685B6803F48013002B16
:1025180003D0BA693B691343BB611C4ABB6993602A
:102528001A4BDB68BB613B69DB43BA691340BB618B
:102538003B685B6803F40013002B03D0BA693B695E
:102548001343BB61114ABB69D360FB690133FB616B
:10255800FB690F2B7FF690AE00BF00BF2437BD4646
:1025680080BC70470038024000380140000002403B
:102578000004024000080240000C02400010024023
:102588000014024000180240001C0240003C0140B8
:1025980080B483B000AF78600B467B8013467B70B5
:1025A8007B78002B03D07A887B689A6103E07B886C
:1025B8001A047B689A6100BF0C37BD4680BC70471F
:1025C800B0B584B000AF78600023FB607B681B68FF
:1025D8001B69FB60FB6823F44053FB607B68DB6886
:1025E800FA681343FB607B681B68FA681A617B68AA
:1025F8001B68DB68FB60FB6823F4164323F00C03BD
:10260800FB607B689A687B681B691A437B685B6917
:102618001A437B68DB691343FA681343FB607B68E2
:102628001B68FA68DA607B681B685B69FB60FB689B
:1026380023F44073FB607B689B69FA681343FB6073
:102648007B681B68FA685A617B68DB69B3F5004FE1
:1026580040F0E4807B681B68AB4A934204D07B68F7
:102668001B68AA4A93426CD1FFF7EEFD0246134657
:102678009B0013449A001A447B685B685B00B2FBBA
:10268800F3F3A34AA2FB03235B091C01FFF7DCFD5C
:10269800024613469B0013449A001A447B685B6801
:1026A8005B00B2FBF3F5FFF7CFFD024613469B0034
:1026B80013449A001A447B685B685B00B2FBF3F32F
:1026C800934AA2FB03235B09642202FB03F3EB1A80
:1026D800DB0032338E4AA2FB03235B095B0003F461
:1026E800F8731C44FFF7B0FD024613469B001344E1
:1026F8009A001A447B685B685B00B2FBF3F5FFF74E
:10270800A3FD024613469B0013449A001A447B68B3
:102718005B685B00B2FBF3F37D4AA2FB03235B0912
:10272800642202FB03F3EB1ADB003233784AA2FB84
:1027380003235B0903F007027B681B6822449A6045
:1027480054E1FFF777FD024613469B0013449A00B5
:102758001A447B685B685B00B2FBF3F36C4AA2FB2C
:1027680003235B091C01FFF765FD024613469B0026
:1027780013449A001A447B685B685B00B2FBF3F56C
:10278800FFF758FD024613469B0013449A001A446B
:102798007B685B685B00B2FBF3F35D4AA2FB032333
:1027A8005B09642202FB03F3EB1ADB003233584A5D
:1027B800A2FB03235B095B0003F4F8731C44FFF7D7
:1027C80039FD024613469B0013449A001A447B685D
:1027D8005B685B00B2FBF3F5FFF72CFD024613467E
:1027E8009B0013449A001A447B685B685B00B2FB49
:1027F800F3F3474AA2FB03235B09642202FB03F3BA
:10280800EB1ADB003233424AA2FB03235B0903F0D5
:1028180007027B681B6822449A60E7E07B681B68B4
:10282800394A934204D07B681B68384A934271D175
:10283800FFF70AFD024613469B0013449A001A4408
:102848007B685B689B00B2FBF3F3314AA2FB03236E
:102858005B091C01FFF7F8FC024613469B00134472
:102868009A001A447B685B689B00B2FBF3F5FFF79C
:10287800EBFC024613469B0013449A001A447B68FB
:102888005B689B00B2FBF3F3214AA2FB03235B09BD
:10289800642202FB03F3EB1A1B0132331C4AA2FB2E
:1028A80003235B0903F0F0031C44FFF7CDFC024649
:1028B80013469B0013449A001A447B685B689B008C
:1028C800B2FBF3F5FFF7C0FC024613469B00134426
:1028D8009A001A447B685B689B00B2FBF3F30C4ACE
:1028E800A2FB03235B09642202FB03F3EB1A1B011F
:1028F8003233074AA2FB03235B0903F00F027B680C
:102908001B6822449A6071E00010014000140140E5
:102918001F85EB51FFF78EFC024613469B001344BC
:102928009A001A447B685B689B00B2FBF3F3314A58
:10293800A2FB03235B091C01FFF77CFC024613463C
:102948009B0013449A001A447B685B689B00B2FBA7
:10295800F3F5FFF76FFC024613469B0013449A00F9
:102968001A447B685B689B00B2FBF3F3214AA2FB25
:1029780003235B09642202FB03F3EB1A1B013233C6
:102988001C4AA2FB03235B0903F0F0031C44FFF776
:1029980051FC024613469B0013449A001A447B6874
:1029A8005B689B00B2FBF3F5FFF744FC0246134655
:1029B8009B0013449A001A447B685B689B00B2FB37
:1029C800F3F30C4AA2FB03235B09642202FB03F323
:1029D800EB1A1B013233074AA2FB03235B0903F0FE
:1029E8000F027B681B6822449A60FFE700BF10371C
:1029F800BD46B0BD1F85EB5180B582B000AF786091
:102A08007B68002B01D101233CE07B6893F83930C7
:102A1800DBB2002B03D17B68002283F838207B6867
:102A2800242283F839207B681B68DA687B681B6876
:102A380022F40052DA607868FFF7C2FD7B681B68F1
:102A48001A697B681B6822F490421A617B681B68CC
:102A58005A697B681B6822F02A025A617B681B68E6
:102A6800DA687B681B6842F40052DA607B680022EF
:102A7800DA637B68202283F839207B68202283F878
:102A88003A20002318460837BD4680BD80B485B07B
:102A980000AFF860B9601346FB7100BFFB681B68A4
:102AA8001A68BB681340BA689A420CBF0123002316
:102AB800DBB21A46FB799A42F0D000231846143745
:102AC800BD4680BC704780B586B000AFF860B9607D
:102AD8003B601346FB80FB6893F83930DBB2202B50
:102AE80076D1BB68002B02D0FB88002B01D10123D3
:102AF8006FE0FB6893F83830012B01D1022368E0BE
:102B0800FB68012283F83820FB680022DA63FB683F
:102B1800212283F83920FB68FA889A84FB68FA88AE
:102B2800DA843CE0FB68DB8C9BB2013B9AB2FB6821
:102B3800DA84FB689B68B3F5805F1FD1002280218F
:102B4800F868FFF7A3FF0346002B01D0032340E0FA
:102B5800BB687B617B691B881A46FB681B68C2F3EC
:102B680008025A60FB681B69002B03D1BB6802335B
:102B7800BB6014E0BB680133BB6010E00022802119
:102B8800F868FFF783FF0346002B01D0032320E0FA
:102B9800BB685A1CBA601A78FB681B685A60FB68E5
:102BA800DB8C9BB2002BBDD100224021F868FFF7D7
:102BB8006DFF0346002B01D003230AE0FB682022A7
:102BC80083F83920FB68002283F83820002300E0CE
:102BD800022318461837BD4680BD80B586B000AFC1
:102BE800F860B9603B601346FB80FB6893F83A30A5
:102BF800DBB2202B40F08780BB68002B02D0FB881B
:102C0800002B01D101237FE0FB6893F83830012BBA
:102C180001D1022378E0FB68012283F83820FB68A1
:102C28000022DA63FB68222283F83A20FB68FA88DC
:102C38009A85FB68FA88DA8556E0FB68DB8D9BB2DB
:102C4800013B9AB2FB68DA85FB689B68B3F5805F45
:102C580028D100222021F868FFF718FF0346002B2F
:102C680001D0032350E0BB687B61FB681B69002B24
:102C78000CD1FB681B685B689BB2C3F308039AB26C
:102C88007B691A80BB680233BB602DE0FB681B6858
:102C98005B689BB2DBB29AB27B691A80BB6801336E
:102CA800BB6021E000222021F868FFF7EFFE034611
:102CB800002B01D0032327E0FB681B69002B08D1F8
:102CC800FB681B685968BB685A1CBA60CAB21A709C
:102CD8000AE0FB681B685B68DAB2BB68591CB9601C
:102CE80002F07F02D2B21A70FB68DB8D9BB2002B18
:102CF800A3D1FB68202283F83A20FB68002283F8DE
:102D08003820002300E0022318461837BD4680BD4E
:102D180080B582B000AF78607B68002B01D10123B9
:102D280025E07B681B79012B01D102231FE07B681A
:102D380001221A717B685B79DBB2002B05D17B68B5
:102D480000221A71786800F016F87B6802225A711E
:102D58007B681B681A687B681B6842F004021A606B
:102D68007B6801225A717B6800221A710023184679
:102D78000837BD4680BD80B483B000AF786000BF1F
:102D88000C37BD4680BC7047002103E00B4B5B58F5
:102D9800435004310A480B4B42189A42F6D30A4A68
:102DA80002E0002313600432084B9A42F9D3AFF3D0
:102DB8000080FDF749FAFEF713FBFEE7182E00081E
:102DC800000000204004002040040020C00500202E
:102DD800FEE70000024B13B10248FDF715BA704731
:102DE800000000001D020008F8B500BFF8BC08BCD0
:102DF8009E467047F8B500BFF8BC08BC9E467047B1
:042E0800180000208E
:082E0C00DD2D0008F1010008B2
:042E1400C9010008E8
:102E18003031323334353637383941424344454608
:102E2800180000200000000000000000040300203B
:102E38006C030020D4030020000000000000000004
:102E4800000000000000000000000000000000007A
:102E5800000000000000000000000000000000006A
:102E6800000000000000000000000000000000005A
:102E7800000000000000000000000000000000004A
:102E8800000000000000000000000000000000003A
:102E9800000000000000000000000000000000002A
:102EA800000000000000000000000000000000001A
:102EB800000000000000000000000000000000000A
:102EC80000000000000000000000000000000000FA
:102ED80001000000000000000E33CDAB34126DE697
:102EE800ECDE05000B000000000000000000000000
:102EF80000000000000000000000000000000000CA
:102F080000000000000000000000000000000000B9
:102F180000000000000000000000000000000000A9
:102F28000000000000000000000000000000000099
:0400000508002D9131
:00000001FF
